:020000040800F2
:100000000804002045010008E70D0008B90C0008AD
:10001000E50D00088D010008BD0E0008000000007D
:100020000000000000000000000000000B0E0008AF
:100030008F01000800000000090E00080D0E0008E6
:100040005F0100085F0100085F0100085F01000810
:100050005F0100085F0100085F0100085F01000800
:100060005F0100085F0100085F0100085F010008F0
:100070005F0100085F0100085F0100085F010008E0
:100080005F0100085F0100085F0100085F010008D0
:100090005F0100085F0100085F0100085F010008C0
:1000A0005F0100085F0100085F0100085F010008B0
:1000B0005F0100085F0100085F0100085F010008A0
:1000C0005F0100085F0100085F0100085F01000890
:1000D0005F0100085F0100085F0100085F01000880
:1000E0005F0100085F0100085F0100085F01000870
:1000F0005F0100085F0100085F0100085F01000860
:100100005F0100085F0100085F0100085F0100084F
:100110005F0100085F0100085F0100085F0100083F
:100120005F0100085F0100085F0100085F0100082F
:10013000DFF80CD000F018F800480047DD0E00088A
:10014000080400200648804706480047FEE7FEE70F
:10015000FEE7FEE7FEE7FEE7FEE7FEE7FEE7FEE777
:10016000750E000831010008064C074D06E0E068F6
:1001700040F0010394E8070098471034AC42F6D3EE
:10018000FFF7DAFF9C0F0008BC0F0008FEE770477E
:1001900031B500F003F9044600F000F90099001BA6
:1001A0008842F9D338BD00002DE9F84FDFF8B8A137
:1001B00000220AF1040B144601274FF00F090BF13E
:1001C000040E00BF0B6807FA04F52B40AB4274D154
:1001D000DFF898C14E68A6EB0C0866452BD00DDC05
:1001E000032E34D005DC36B3012E19D0022E2FD1C8
:1001F0001BE0112E16D0122E2AD119E0B8F5881F57
:1002000019D006DCB8F5803F15D0B8F5801F1FD196
:1002100011E0B8F5001F0ED0B8F5041F18D10AE0A0
:10022000CA6815E0CA68121D12E0CA6808320FE0F9
:10023000CA680C320CE08A682AB1012A4FF0080221
:1002400003D0456104E0042202E0056100E00022E1
:10025000FF2B01D8064601E000F104064FEA8405B1
:1002600001D9A5F12005D6F800C009FA05F82CEA55
:10027000080C02FA05F54CEA050CC6F800C04D68FA
:10028000ED006AD53A4DAE6946F00106AE61AD6942
:1002900024F0030605F001050095364D06EB050C2C
:1002A000DCF80850A6074FEA167809FA08F6B543B5
:1002B000314EB04202D100261AE04EE02F4EB0423D
:1002C00001D1012614E02E4EB04201D102260FE0EA
:1002D0002C4EB04201D103260AE02B4EB04201D190
:1002E000042605E0294EB04201D1052600E006268D
:1002F00006FA08F62E43CCF808604D68DAF800607C
:10030000ED03554601D51E4300E09E432E604D6827
:10031000AD0305D5DBF800601E43CBF8006004E0B8
:10032000DBF800509D43CBF800504D68DEF80060CC
:10033000ED02754601D51E4300E09E432E604D68D8
:10034000AD0205D5084D0C352E681E432E6004E025
:10035000054E0C3635689D433560641C102CFFF447
:1003600031AFBDE8F88F000000040140000011101B
:10037000001002400000014000080140000C014054
:10038000001001400014014000180140001C014011
:100390000AB1016170470904FBE7000001480068E9
:1003A000704700000000002002480168491C0160FD
:1003B0007047000000000020074810B5016841F0B8
:1003C00010010160032000F073F8002000F006F82F
:1003D00000F016F8002010BD0020024010B50446C1
:1003E00000F03CF94FF47A71B0FBF1F000F04CFCF6
:1003F00000222146501E00F03BF8002010BD0000F6
:100400001A4808B5816941F001018161806900F0F5
:1004100001000090032000F04BF8002211466FF01D
:100420000B0000F025F8002211466FF00A0000F0E2
:100430001FF8002211466FF0090000F019F80022A1
:100440001146501F00F014F800221146101F00F052
:100450000FF800221146901E00F00AF80022BDE8B5
:1004600008401146501E00F003B800000010024082
:10047000F0B40E4B1B680C46C3F30223C3F107050F
:10048000042D00D90425191D072901D2002300E0FD
:10049000DB1E012606FA05F1491E214099409E40C7
:1004A000761E16403143F0BC00F09EBC0CED00E01F
:1004B000064900F0070208684FF6FF03184040EABB
:1004C0000220034A10430860704700000CED00E072
:1004D0000000FA052DE9F047DFF8708105460E4669
:1004E000D8F8000000F00700B0420CD2D8F8001095
:1004F00021F007013143C8F80010D8F8000000F0DF
:100500000700B04277D12878514C800705D5606844
:10051000A96820F0F000084360602878C00759D02F
:100520006968012001290DD0022929D05FF002035A
:1005300093FAA3F2B2FA82F242F02002520904D0F6
:10054000226803E04FF40033F2E7626A93FAA3F300
:10055000B3FA83F303F01F03984002424BD0606864
:1005600020F0030008436060FFF718FF6968074642
:1005700041F2883001290DD00229814617D025E0AB
:100580004FF00073D4E700BFFFF708FFC11B4945D8
:1005900001D918E081466068C0F381000128F3D1D9
:1005A00018E000BFFFF7FAFEC11B49450BD8606891
:1005B000C0F381000228F5D10CE000BFFFF7EEFE8A
:1005C000C11B494502D90320BDE8F087606810F0DF
:1005D0000C0FF3D1D8F80010404601F00701B142EA
:1005E0000BD9016821F0070131430160006800F078
:1005F0000700B04201D00120E6E72878400705D582
:100600006068E96820F4E0600843606028780007CB
:1006100006D56068296920F4605040EAC100606036
:1006200000F022F86168F02292FAA2F201F0F001E3
:10063000B2FA82F2D140074A515CC84006490860CC
:100640000020FFF7CBFE0020BEE7000000200240A4
:10065000001002408C0F00080400002001480068D0
:10066000704700000400002010B519A385B00FCB1F
:100670008DE80F001AA01B4B006804905A681A48B6
:1006800002F00C0104291DD008291BD14FF470146D
:1006900094FAA4F402F47011B4FA84F4E140D203A1
:1006A0001DF8011010D55A684FF4003393FAA3F3E4
:1006B00002F40032B3FA83F3DA4004AB9A5CB0FB85
:1006C000F2F0484305B010BD08484843FAE700007F
:1006D00002030405060708090A0B0C0D0E0F101083
:1006E000010200000010024000127A0000093D00E3
:1006F0002DE9F84F04460078F74DC0074FF001068A
:1007000025D068687704C0F38100012807D06868A5
:10071000C0F3810002281BD16868C00318D597FA7E
:10072000A7F0B0FA80F040F02000400901D028681E
:1007300000E0686A97FAA7F1B1FA81F101F01F01B0
:1007400006FA01F108425ED0606800287CD05AE0C9
:100750006068B0F5803F0BD010B1B0F5A02F11D07C
:10076000286820F480302860286820F4802002E087
:10077000286840F480302860606828B3FFF70EFED8
:1007800080460BE0286840F480202860F0E700BF36
:10079000FFF704FEA0EB0800642871D897FAA7F0D1
:1007A000B0FA80F040F02000400901D0286800E055
:1007B000686A97FAA7F1B1FA81F101F01F0106FA10
:1007C00001F10842E4D01EE0FFF7E8FD804605E0B5
:1007D000FFF7E4FDA0EB08006428DED897FAA7F045
:1007E000B0FA80F040F02000400901D0286800E015
:1007F000686A97FAA7F1B1FA81F101F01F0106FAD0
:1008000001F10842E4D12078DFF8D08280074FF070
:1008100000094FF002075BD568684FF0F80B10F045
:100820000C0F07D06868C0F3810002281CD16868EB
:10083000C00319D497FAA7F0B0FA80F040F0200076
:10084000400902D0286801E08BE0686A97FAA7F1B6
:10085000B1FA81F101F01F0106FA01F108422CD032
:10086000206901287DD128E0206990B396FAA6F08E
:10087000B0FA80F048F82060FFF790FD824607E06C
:1008800011E100BFFFF78AFDA0EB0A00022884D81F
:1008900097FAA7F0B0FA80F040F02000400901D0AC
:1008A000286800E0686A97FAA7F1B1FA81F101F0CF
:1008B0001F0106FA01F10842E4D028689BFAABF266
:1008C0006169B2FA82F220F0F80091400843286092
:1008D00025E0FFE796FAA6F1B1FA81F148F82190F8
:1008E000FFF75CFD824605E0FFF758FDA0EB0A002C
:1008F0000228CCD897FAA7F0B0FA80F040F0200098
:10090000400901D0286800E0686A97FAA7F1B1FAB7
:1009100081F101F01F0106FA01F10842E4D12078CB
:1009200000076ED5A069B8B396FAA6F0B0FA80F0C9
:1009300008EB8000C0F88064FFF730FD824605E0D8
:10094000FFF72CFDA0EB0A000228A0D897FAA7F029
:10095000B0FA80F040F06000B6EB501F02D128687A
:100960000CE062E197FAA7F0B0FA80F040F0600086
:10097000B7EB501F01D1286A00E0686A97FAA7F127
:10098000B1FA81F101F01F0106FA01F21042D7D04D
:100990000120FFF7FDFB34E0FFE796FAA6F1B1FA7C
:1009A00081F108EB8101C1F88094FFF7F7FC8246E2
:1009B00006E000BFFFF7F2FCA0EB0A00022872D8A5
:1009C00097FAA7F0B0FA80F040F06000B6EB501F45
:1009D00001D128680BE097FAA7F0B0FA80F040F058
:1009E0006000B7EB501F01D1286A00E0686A97FAEF
:1009F000A7F1B1FA81F101F01F0106FA01F21042EC
:100A0000D8D12078400765D5E86940F08050E8618A
:100A1000E869DFF8CCB000F080500090DBF80010FF
:100A200041F48071CBF80010FFF7B8FC824605E076
:100A3000FFF7B4FCA0EB0A00642834D8DBF8000010
:100A4000C005F5D5E06801280AD008B1052813D003
:100A5000286A20F001002862286A20F0040002E0E1
:100A6000286A40F001002862E06841F2883B90B3B8
:100A7000FFF794FC82460BE0286A40F004002862ED
:100A8000EEE700BFFFF78AFCA0EB0A0159450AD840
:100A900097FAA7F0B0FA80F040F04000B6EB501F94
:100AA00002D128680CE0A3E097FAA7F0B0FA80F032
:100AB00040F04000B7EB501F01D1286A00E0686A9F
:100AC00097FAA7F1B1FA81F101F01F0206FA02F1DB
:100AD0000842D7D031E005E0001002400000424259
:100AE00000700040FFF75AFC824605E0FFF756FC15
:100AF000A0EB0A0159457BD897FAA7F0B0FA80F02D
:100B000040F04000B6EB501F01D128680BE097FA87
:100B1000A7F0B0FA80F040F04000B7EB501F01D1D1
:100B2000286A00E0686A97FAA7F1B1FA81F101F04A
:100B30001F0206FA02F10842D8D1E06980B3696861
:100B4000C1F38101022970D04FF080714F0002285B
:100B5000484609D091FAA1F1B1FA81F148F8210093
:100B6000FFF71CFC044669E08A4691FAA1F1B1FA4C
:100B700081F1C14648F82100FFF710FC804605E0EE
:100B8000FFF70CFCA0EB0800022854D897FAA7F056
:100B9000B0FA80F040F02000400902D0286801E05F
:100BA00061E0686A97FAA7F1B1FA81F101F01F01DB
:100BB00006FA01F10842E3D1206AB0F5803F05D181
:100BC0006868A16820F4003008436860D4E908012F
:100BD0000843696821F47411084368609AFAAAF01E
:100BE000B0FA80F049F82060FFF7D8FB044606E031
:100BF00021E000BFFFF7D2FB001B02281BD897FAA9
:100C0000A7F0B0FA80F040F02000400901D0286839
:100C100000E0686A97FAA7F1B1FA81F101F01F01CB
:100C200006FA01F10842E5D01DE01EE0FFF7B6FB31
:100C3000001B022802D90320BDE8F88F97FAA7F01D
:100C4000B0FA80F040F02000400901D0286800E0B0
:100C5000686A97FAA7F1B1FA81F101F01F0106FA6B
:100C600001F10842E2D10020E6E70120E4E74FF07D
:100C7000E0210428086903D020F0040008617047CF
:100C800040F00400FAE7704710B5401EB0F1807FD5
:100C900001D3012010BD4FF0E02460610F216017E7
:100CA00000F0A2F80020A06107202061002010BD04
:100CB00010B5FFF7E8FF10BDFEE7000010B5094CC6
:100CC000012240212046FFF763FB0120FFF760FA75
:100CD000002240212046FFF75BFBBDE810400120C9
:100CE000FFF756BA0010014019B1C030C0B200F091
:100CF0006BB88030FAE7000010B5002000F044F82F
:100D0000002210210F48FFF743FB032000F03CF8BE
:100D1000FFF7D4FFFFF7D2FFFFF7D0FF022000F06C
:100D200033F8FFF7CBFF282000F04EF80C2000F03E
:100D30004BF8062000F048F8BDE81040012000F014
:100D400043B800000010014070B5084C0546012270
:100D500010212046FFF71CFB284600F035F82046FE
:100D6000BDE8704000221021FFF712BB00100140C7
:100D700010B5044603E000BFFFF7E6FF641C2078CF
:100D80000028F9D110BD000070B50E4D044600F0EA
:100D9000010280212846FFF7FBFAC4F34002A9159F
:100DA0002846FFF7F5FAC4F3800269152846FFF7D5
:100DB000EFFAC4F3C00229152846BDE87040FFF7DA
:100DC000E7BA00000010014010B504460009FFF723
:100DD000DBFFFFF773FF2046FFF7D6FFBDE81040AB
:100DE000FFF76CBFFEE770470907090E002806DA17
:100DF00000F00F0000F1E02080F8141D704700F1B2
:100E0000E02080F8001470477047704710B5FFF776
:100E1000CBFABDE81040FFF74BBF10B590B00220F1
:100E2000009001200490102000240590079468464B
:100E3000FFF75EFC00B1FEE70F20CDE90A040C9439
:100E40000D9400210AA80E94FFF744FB00B1FEE7C1
:100E5000FFF704FC4FF47A71B0FBF1F0FFF714FFD9
:100E60000420FFF704FF00221146501EFFF700FB8D
:100E700010B010BD0D48016841F0010101604168EA
:100E80000B4A1140416001680A4A11400160016843
:100E900021F480210160416821F4FE0141604FF49A
:100EA0001F0181600449C0030860704700100240C0
:100EB0000000FFF8FFFFF6FE08ED00E0FEE702E0AD
:100EC00008C8121F08C1002AFAD1704770470020D5
:100ED00001E001C1121F002AFBD1704786B0FFF765
:100EE0006BFAFFF79AFF1F48816941F01001816199
:100EF00080691D4D00F010004FF4FE640490002244
:100F000021462846FFF744FA00210F20CDE90001D1
:100F1000029169462846FFF747F90120CDE90040D4
:100F20000220039069462846FFF73EF9002220215F
:100F30002846FFF72DFAFFF7DFFE4FF4FA74002181
:100F40000846FFF7D1FE09A0FFF712FF012100209C
:100F5000FFF7CAFE09A0FFF70BFF2046FFF718F9BD
:100F6000EDE70000001002400010014043687520CA
:100F70005469656E205468696E68000053544D339F
:100F80003246313033524354360000000000000036
:100F9000000000000102030406070809BC0F000856
:100FA0000000002008000000BE0E0008C40F00086A
:100FB0000800002000040000CE0E00080000000021
:040FC00000A24A043D
:0400000508000131BD
:00000001FF
