:020000040800F2
:100000004804002001010008D70F0008910F0008E4
:10001000D50F0008350200089D1000080000000000
:10002000000000000000000000000000FB0F0008BE
:100030003702000800000000F90F0008FD0F00085B
:100040001B0100081B0100081B0100081B01000820
:100050001B0100081B0100081B0100081B01000810
:100060001B0100081B0100081B0100081B01000800
:100070001B0100081B0100081B0100081B010008F0
:100080001B0100081B0100086D0100081B0100088E
:100090001B0100081B0100081B0100081B010008D0
:1000A0001B0100081B0100081B0100081B010008C0
:1000B0001B0100081B0100081B0100081B010008B0
:1000C0001B0100081B0100081B0100081B010008A0
:1000D0001B0100081B0100081B0100081B01000890
:1000E0001B0100081B0100081B010008DFF80CD0F1
:1000F00000F02AF800480047BD100008480400201E
:100100000648804706480047FEE7FEE7FEE7FEE7B1
:10011000FEE7FEE7FEE7FEE7FEE7FEE75510000814
:10012000ED000008D2B201E000F8012B491EFBD21D
:1001300070470022F6E710B513460A4604461946F2
:10014000FFF7F0FF204610BD064C074D06E0E068C3
:1001500040F0010394E8070098471034AC42F6D30E
:10016000FFF7C8FF1411000834110008014800F01F
:10017000EEB800001800002070B5044600688168E1
:10018000C943C9071CD1816821F00101816000F0D9
:100190006BFB05460FE000BF00F066FB401B02282A
:1001A00009D9A06A40F01000A062E06A40F00100A6
:1001B000E062012070BD20688068C043C007EBD0BA
:1001C000002070BDF8B500260446009600688168DE
:1001D000C943C90728D0816841F0010181601348F3
:1001E00013490068B0FBF1F000E0401E00900028C9
:1001F000FBD100F039FB054611E000BF00F034FBF5
:10020000401B02280BD9A06A40F01000A062E06AEF
:1002100040F00100E06284F824600120F8BD20680D
:100220008068C043C007E9D10020F8BD1400002059
:1002300040420F00FEE7704770470000F8B5002409
:10024000009490F824202546012A12D0012280F83B
:1002500024204A681F23072A0DD20668776B521E96
:1002600002EB820293409F430B6893401F437763E6
:1002700019E00220F8BD06680D2A0AD2376BD21F9A
:1002800002EB820293409F430B6893401F43376306
:1002900009E0F76A0D3A02EB820293409F430B6834
:1002A00093401F43F7620A68072306680A2A0AD3A5
:1002B000F7680A3A02EB420293409F438B689340EF
:1002C0001F43F76008E0376902EB420293409F4307
:1002D0008B6893401F4337610A68102A01D0112AA6
:1002E00020D1124B02689A4217D193681B0219D48D
:1002F000936843F4000393600968102912D10C49F4
:100300000C4A0968B1FBF2F101EB8101490000E000
:10031000491E00910029FBD104E0816A41F02001CF
:100320008162012480F824502046F8BD0024014059
:100330001400002040420F0010B500F005F80149FC
:10034000486010BD000000200068C06C704710B508
:10035000044600684168890626D50168890723D5C7
:10036000A16AC90603D4A16A41F40071A16281683F
:10037000C1F34241072910D1E16871B9416821F008
:1003800020014160A06A20F48070A062A06AC004CD
:1003900003D4A06A40F00100A0622046FFF7CCFF22
:1003A00021686FF0120008602068416809062ED5A8
:1003B000016849072BD5A16AC90603D4A16A41F493
:1003C0000051A1628168C1F30231072909D0416857
:1003D000490515D48168C1F34241072910D1E1686C
:1003E00071B9416821F080014160A06A20F4805019
:1003F000A062A06AC00503D4A06A40F00100A06218
:100400002046FFF719FF21686FF00C000860206894
:10041000416849060DD50068C0070AD0A06A40F4BB
:100420008030A062204600F093F821686FF0010050
:10043000086010BD2DE9F0414FF0000704003D4673
:100440007ED0A06A002628B9E66284F8246020469F
:1004500000F080F82046FFF78FFEA16AC90600D49D
:1004600020B1A06A40F01000A06269E0A16A21F406
:10047000885141F00201A1626268E169E3680A43C0
:1004800047EA43010A43A1684FF48077B94209D093
:10049000012907D05FF00001D4F814C0BCF1010FAE
:1004A00002D00AE03946F7E7F3B1A36A43F020032C
:1004B000A362E36A43F00103E3622368D3F804C054
:1004C0002CF4694C4CEA010CC3F804C021688B6819
:1004D000DFF870C003EA0C0313438B60A168B942D4
:1004E0000BD0012909D00CE0DFF85CC0A3690CEB4C
:1004F00043330B4343F40061DFE7218A0D05A5F583
:1005000080152168CB6A23F470032B43CB622168EA
:1005100089680E4B1940914208D1E662A16A21F028
:10052000020141F00101A162BDE8F081A06A20F062
:10053000020040F01000A062E06A40F00100E062BA
:100540000120F1E7FDF7E1FF00E0FFFFFE0E1FFFD6
:100550007047000000B585B0002100910191029123
:10056000039100681249884220D11248816941F400
:1005700000718161816901F400710491816941F028
:10058000040181618069694600F004000490012043
:10059000009003200190084800F088F800221146DE
:1005A000122000F0CBF9122000F0BCF905B000BD1C
:1005B00000240140001002400008014070B50446CC
:1005C00090F8240001280DD0012084F82400204652
:1005D000FFF7F8FD02004FF0000005D084F824007A
:1005E000104670BD022070BDA16A40F601639943B8
:1005F00041F48071A162224D23682249AB4218D197
:100600000E6816F4702F14D0A66A46F48016A662FF
:100610000E68760505D5A66A26F4005646F480567F
:10062000A662A66AF6040AD5E66A26F00606E6621F
:1006300006E0A66A26F48016A6625E68E9E7E06234
:1006400084F824006FF0020018602068436843F0CB
:100650002003436020688368C3F34243072B05D11E
:10066000A84208D1096811F4702F04D0816841F4C0
:1006700080118160B4E7816841F4A001F9E70000CE
:10068000002801400424014070B5044600F0ECF855
:100690000546601C02D004480078044400F0E4F8E9
:1006A000401BA042FAD370BD080000202DE9F84F8E
:1006B000DFF890A100220AF1040B144601274FF045
:1006C0000F090BF1040E00BF0B6807FA04F52B406D
:1006D000AB4274D1DFF870C14E68A6EB0C086645DA
:1006E0002BD00DDC032E34D005DC36B3012E19D00F
:1006F000022E2FD11BE0112E16D0122E2AD119E076
:10070000B8F5881F19D006DCB8F5803F15D0B8F5CC
:10071000801F1FD111E0B8F5001F0ED0B8F5041FDF
:1007200018D10AE0CA6815E0CA68121D12E0CA684A
:1007300008320FE0CA680C320CE08A682AB1012A3C
:100740004FF0080203D0456104E0042202E0056195
:1007500000E00022FF2B01D8064601E000F104066C
:100760004FEA840501D9A5F12005D6F800C009FAA1
:1007700005F82CEA080C02FA05F54CEA050CC6F857
:1007800000C04D68ED0057D5304DAE6946F001060A
:10079000AE61AD6924F0030605F0010500952C4D0E
:1007A00006EB050CDCF80850A6074FEA167809FAA4
:1007B00008F6B543274EB04202D1002610E03BE0D8
:1007C000254EB04201D101260AE0244EB04201D1AB
:1007D000022605E0224EB04201D1032600E00426A5
:1007E00006FA08F62E43CCF808604D68DAF8006087
:1007F000ED03554601D51E4300E09E432E604D6833
:10080000DBF80060AD035D4601D51E4300E09E436A
:100810002E604D68DEF80060ED02754601D51E437E
:1008200000E09E432E604D68AD020E4D2E6801D54E
:100830001E4300E09E432E60641C102CFFF444AF66
:10084000BDE8F88F000401400000111000100240C4
:100850000000014000080140000C01400010014070
:10086000001401400C0401400148806870470000FA
:1008700008000020024881680278114481607047B6
:1008800008000020074810B5016841F01001016020
:10089000032000F073F8002000F006F800F024F8C0
:1008A000002010BD0020024070B50D4D04464FF4ED
:1008B0007A712878B1FBF0F00A490968B1FBF0F0D1
:1008C00000F052FB48B9102C07D200222146501EDE
:1008D00000F034F800206C6070BD012070BD000095
:1008E00008000020140000200C4808B5816941F080
:1008F00001018161816901F001010091C16941F04B
:100900008051C161C06900F0805000900448416886
:1009100021F0E06141F00071416008BD001002402B
:100920000000014000F01F020121914040098000B9
:1009300000F1E020C0F8001170470000F0B40E4B49
:100940001B680C46C3F30223C3F10705042D00D92D
:100950000425191D072901D2002300E0DB1E012612
:1009600006FA05F1491E214099409E40761E164028
:100970003143F0BC00F030BB0CED00E0064900F064
:10098000070208684FF6FF03184040EA0220034AB6
:1009900010430860704700000CED00E00000FA050D
:1009A0002DE9F84305460078354CC00754D0E0697E
:1009B0000026C00008D4E06940F08050E061E069A2
:1009C000012600F0805000902E480168C90512D41D
:1009D0000168804641F480710160FFF745FF0746DA
:1009E00005E000BFFFF740FFC01B642823D8D8F8FC
:1009F0000000C005F6D5206A10F4407021D0A98807
:100A000001F4407181421CD0206A1F49012220F468
:100A100040700A6000220A602062C00711D0FFF710
:100A200023FF074641F2883808E000BFFFF71CFFAC
:100A3000C11B414502D90320BDE8F883206A800725
:100A4000F4D5206A696820F44070084320621EB122
:100A5000E06920F08050E0612878800705D5606863
:100A6000A96820F44040084360602878C00605D596
:100A70006068E96820F48000084360600020DBE7DC
:100A80000010024000700040400442422DE9F0474F
:100A9000DFF8548105460E46D8F8000000F0070044
:100AA000B0420CD2D8F8001021F007013143C8F849
:100AB0000010D8F8000000F00700B0426FD128689D
:100AC0004A4C810712D5400703D5606840F4E060C6
:100AD00060602878000703D5606840F4605060606B
:100AE0006068A96820F0F000084360602878C007BB
:100AF00044D06868012816D02168022816D08907DA
:100B000000294CDA616821F0030101436160FFF7BD
:100B1000ABFE6968074641F2883001290ED00229F0
:100B2000814618D026E021688903E9E78901E7E7D3
:100B3000FFF79AFEC11B494501D918E0814660685C
:100B4000C0F381000128F3D118E000BFFFF78CFE4D
:100B5000C11B49450BD86068C0F381000228F5D15C
:100B60000CE000BFFFF780FEC11B494502D90320FE
:100B7000BDE8F087606810F00C0FF3D1D8F80010D2
:100B8000404601F00701B1420BD9016821F007018D
:100B900031430160006800F00700B04201D001203D
:100BA000E6E72878400705D56068E96820F4E0604A
:100BB000084360602878000706D56068296920F43A
:100BC000605040EAC100606000F016F86168084AB1
:100BD000C1F30311515CC840064908600020FFF7CB
:100BE00063FE0020C4E70000002002400010024025
:100BF000041100081400002012A185B00FC98DE86F
:100C00000F0014A0144A006804905168134801F0C2
:100C10000C03042B10D0082B0ED1C1F38343C9035E
:100C20001DF803000AD5516804AAC1F34041515C84
:100C30000A4A5043B0FBF1F005B0704708494843F9
:100C4000FAE7000002030405060708090A0B0C0D69
:100C50000E0F1010010200000010024000127A0076
:100C600000093D002DE9F84F04460078B94DC00752
:100C700048D06868C0F38100012807D06868C0F3D5
:100C80008100022809D16868C00306D5286880035E
:100C900038D5606800286FD034E06068B0F5803FD8
:100CA0000BD010B1B0F5A02F11D0286820F48030FF
:100CB0002860286820F4802002E0286840F4803012
:100CC0002860606888B1FFF7CFFD064609E0286814
:100CD00040F480202860F0E7FFF7C6FD801B642801
:100CE00075D828688003F7D50CE0FFF7BDFD0646F0
:100CF00005E000BFFFF7B8FD801B6428F0D8286826
:100D00008003F7D42078944E80074FF001094FF00C
:100D100000083BD5686810F00C0F07D06868C0F376
:100D20008100022809D16868C00306D428688007BA
:100D300014D5206901281FD110E02069B0B1C6F890
:100D40000090FFF791FD074605E000BFFFF78CFD1F
:100D5000C01B0228C4D828688007F7D528686169B5
:100D600020F0F80040EAC10028600FE0C6F80080DB
:100D7000FFF77AFD074606E0E9E000BFFFF774FDE4
:100D8000C01B022823D828688007F7D420780007E2
:100D90002CD57248A169D9B1C0F80090FFF764FD65
:100DA000074604E0FFF760FDC01B02280FD8686A01
:100DB0008007F7D56A484FF4FA510068B0FBF1F0AC
:100DC000009000BF0098411E0091FAD20EE080E032
:100DD000C0F80080FFF748FD074604E0FFF744FD38
:100DE000C01B022875D8686A8007F7D420784007AE
:100DF00060D5E8690027C00008D4E86940F0805059
:100E0000E861E869012700F08050009055480168CA
:100E1000C90513D40168834641F480710160FFF76E
:100E200023FD824606E000BFFFF71EFDA0EB0A008F
:100E300064284ED8DBF80000C005F5D5E06801282D
:100E40000AD008B1052813D0286A20F001002862D2
:100E5000286A20F0040002E0286A40F001002862BD
:100E6000E06841F2883B98B1FFF7FEFC82460BE058
:100E7000286A40F004002862EEE700BFFFF7F4FCA8
:100E8000A0EB0A0159455AD8286A8007F6D50CE02C
:100E9000FFF7EAFC824605E0FFF7E6FCA0EB0A015B
:100EA00059454CD8286A8007F6D41FB1E86920F06C
:100EB0008050E861E06988B36968C1F38101022963
:100EC00045D00228C6F8608004D0FFF7CDFC044668
:100ED00038E034E0FFF7C8FC074604E0FFF7C4FC45
:100EE000C01B02282BD828688001F7D4206AB0F5EF
:100EF000803F05D16868A16820F40030084368602D
:100F0000D4E908010843696821F474110843686052
:100F1000C6F86090FFF7A8FC044606E015E000BFA5
:100F2000FFF7A2FC001B022809D828688001F7D52A
:100F30000BE000BFFFF798FC001B022802D903203A
:100F4000BDE8F88F28688001F4D40020F8E701207C
:100F5000F6E70000001002400000424280044242D6
:100F6000140000200070004010B5401EB0F1807FDA
:100F700001D3012010BD4FF0E02460610F21601704
:100F800000F02AF80020A06107202061002010BD99
:100F9000FEE700003EB500240D48009401940B4983
:100FA000029401600125C0E90245446105614FF4E6
:100FB00060214460C161FFF73DFA07200094CDE94C
:100FC000015069460248FFF739F93EBD002401404F
:100FD00018000020FEE770470907090E002806DA0E
:100FE00000F00F0000F1E02080F8141D704700F1C0
:100FF000E02080F80014704770477047FFF73ABC54
:1010000030B593B028216846FFF793F814210AA859
:10101000FFF78FF8002401200F940225049000951B
:101020001020119405901094129407946846FFF7CD
:1010300019FE0F20CDE90A040C940D9400210AA892
:101040000E94FFF723FD0FA80F951194FFF7A8FC4E
:1010500013B030BD0D48016841F0010101604168E5
:101060000B4A1140416001680A4A11400160016861
:1010700021F480210160416821F4FE0141604FF4B8
:101080001F0181600449C0030860704700100240DE
:101090000000FFF8FFFFF6FE08ED00E0FEE702E0CB
:1010A00008C8121F08C1002AFAD1704770470020F3
:1010B00001E001C1121F002AFBD1704708B5FFF7FC
:1010C000E1FBFFF79DFF0C48816941F0040181615C
:1010D000806900F004000090FFF75CFF0748FFF70D
:1010E0006DFA074C4FF47A7528462178491C217017
:1010F000FFF7CAFAF8E700000010024018000020CD
:1011000000000020000000000000000001020304B5
:10111000060708093411000800000020180000002C
:101120009E1000084C110008180000203004000038
:10113000AE100008000000000000000001000000E8
:0C114000100000000000000000A24A04A3
:04000005080000ED02
:00000001FF
