:020000040800F2
:100000001004002045010008230F0008390D0008E6
:10001000210F00088D0100080510000800000000F5
:10002000000000000000000000000000470F000872
:100030008F01000800000000450F0008490F00086C
:100040005F0100085F0100085F0100085F01000810
:100050005F0100085F01000891010008AD01000880
:10006000C5010008CB0100085F0100085F0100081E
:100070005F0100085F0100085F0100085F010008E0
:100080005F0100085F0100085F0100085F010008D0
:100090005F0100085F0100085F0100085F010008C0
:1000A0005F0100085F0100085F0100085F010008B0
:1000B0005F0100085F0100085F0100085F010008A0
:1000C0005F0100085F0100085F0100085F01000890
:1000D0005F0100085F0100085F0100085F01000880
:1000E0005F0100085F0100085F0100085F01000870
:1000F0005F0100085F0100085F0100085F01000860
:100100005F0100085F0100085F0100085F0100084F
:100110005F0100085F0100085F0100085F0100083F
:100120005F0100085F0100085F0100085F0100082F
:10013000DFF80CD000F018F8004800472510000840
:10014000100400200648804706480047FEE7FEE707
:10015000FEE7FEE7FEE7FEE7FEE7FEE7FEE7FEE777
:10016000BD0F000831010008064C074D06E0E068AD
:1001700040F0010394E8070098471034AC42F6D3EE
:10018000FFF7DAFF0811000828110008FEE77047A2
:1001900005490868401C0860052801D10020086056
:1001A000012000F021B80000080000200449086880
:1001B000401E086001D505200860022000F014B838
:1001C00008000020042000F00FB8082000F00CB850
:1001D00031B500F00FF9044600F00CF90099001B4E
:1001E0008842F9D338BD7047044910B50A68024205
:1001F00002D00860FFF7F7FF10BD000014040140B3
:100200002DE9F84FDFF8B8A100220AF1040B1446DB
:1002100001274FF00F090BF1040E00BF0B6807FA1E
:1002200004F52B40AB4274D1DFF898C14E68A6EBC1
:100230000C0866452BD00DDC032E34D005DC36B31C
:10024000012E19D0022E2FD11BE0112E16D0122E06
:100250002AD119E0B8F5881F19D006DCB8F5803F1F
:1002600015D0B8F5801F1FD111E0B8F5001F0ED0D2
:10027000B8F5041F18D10AE0CA6815E0CA68121D53
:1002800012E0CA6808320FE0CA680C320CE08A68D3
:100290002AB1012A4FF0080203D0456104E004228C
:1002A00002E0056100E00022FF2B01D8064601E0D4
:1002B00000F104064FEA840501D9A5F12005D6F81E
:1002C00000C009FA05F82CEA080C02FA05F54CEA18
:1002D000050CC6F800C04D68ED006AD53A4DAE6910
:1002E00046F00106AE61AD6924F0030605F0010594
:1002F0000095364D06EB050CDCF80850A6074FEAD2
:10030000167809FA08F6B543314EB04202D10026FC
:100310001AE04EE02F4EB04201D1012614E02E4EDD
:10032000B04201D102260FE02C4EB04201D103268B
:100330000AE02B4EB04201D1042605E0294EB0421E
:1003400001D1052600E0062606FA08F62E43CCF871
:1003500008604D68DAF80060ED03554601D51E438C
:1003600000E09E432E604D68AD0305D5DBF80060CC
:100370001E43CBF8006004E0DBF800509D43CBF84F
:1003800000504D68DEF80060ED02754601D51E4351
:1003900000E09E432E604D68AD0205D5084D0C353A
:1003A0002E681E432E6004E0054E0C3635689D43D2
:1003B0003560641C102CFFF431AFBDE8F88F0000ED
:1003C0000004014000001110001002400000014034
:1003D00000080140000C01400010014000140140E1
:1003E00000180140001C01400AB101617047090476
:1003F000FBE700000148006870470000040000208F
:1004000002480168491C0160704700000400002098
:10041000074810B5016841F010010160032000F0A9
:1004200087F8002000F006F800F016F8002010BD54
:100430000020024010B5044600F050F94FF47A71E4
:10044000B0FBF1F000F060FC00222146501E00F0ED
:100450004FF8002010BD00001D4808B5816941F02B
:1004600001018161806900F001000090032000F02B
:100470005FF8002211466FF00B0000F039F80022FF
:1004800011466FF00A0000F033F8002211466FF0B9
:10049000090000F02DF800221146501F00F028F846
:1004A00000221146101F00F023F800221146901E72
:1004B00000F01EF800221146501E00F019F8054801
:1004C000416821F0E06141F00071416008BD000029
:1004D000001002400000014000F01F020121914085
:1004E0004009800000F1E020C0F8001170470000D2
:1004F000F0B40E4B1B680C46C3F30223C3F107058F
:10050000042D00D90425191D072901D2002300E07C
:10051000DB1E012606FA05F1491E214099409E4046
:10052000761E16403143F0BC00F0FCBC0CED00E040
:10053000064900F0070208684FF6FF03184040EA3A
:100540000220034A10430860704700000CED00E0F1
:100550000000FA052DE9F047DFF8708105460E46E8
:10056000D8F8000000F00700B0420CD2D8F8001014
:1005700021F007013143C8F80010D8F8000000F05E
:100580000700B04277D12878514C800705D56068C4
:10059000A96820F0F000084360602878C00759D0AF
:1005A0006968012001290DD0022929D05FF00203DA
:1005B00093FAA3F2B2FA82F242F02002520904D076
:1005C000226803E04FF40033F2E7626A93FAA3F380
:1005D000B3FA83F303F01F03984002424BD06068E4
:1005E00020F0030008436060FFF704FF69680746D6
:1005F00041F2883001290DD00229814617D025E02B
:100600004FF00073D4E700BFFFF7F4FEC11B49456C
:1006100001D918E081466068C0F381000128F3D158
:1006200018E000BFFFF7E6FEC11B49450BD8606824
:10063000C0F381000228F5D10CE000BFFFF7DAFE1D
:10064000C11B494502D90320BDE8F087606810F05E
:100650000C0FF3D1D8F80010404601F00701B14269
:100660000BD9016821F0070131430160006800F0F7
:100670000700B04201D00120E6E72878400705D501
:100680006068E96820F4E06008436060287800074B
:1006900006D56068296920F4605040EAC1006060B6
:1006A00000F022F86168F02292FAA2F201F0F00163
:1006B000B2FA82F2D140074A515CC840064908604C
:1006C0000020FFF7B7FE0020BEE700000020024038
:1006D00000100240F81000080000002001480068E7
:1006E000704700000000002010B519A385B00FCBA3
:1006F0008DE80F001AA01B4B006804905A681A4836
:1007000002F00C0104291DD008291BD14FF47014EC
:1007100094FAA4F402F47011B4FA84F4E140D20320
:100720001DF8011010D55A684FF4003393FAA3F363
:1007300002F40032B3FA83F3DA4004AB9A5CB0FB04
:10074000F2F0484305B010BD08484843FAE70000FE
:1007500002030405060708090A0B0C0D0E0F101002
:10076000010200000010024000127A0000093D0062
:100770002DE9F84F04460078F74DC0074FF0010609
:1007800025D068687704C0F38100012807D0686825
:10079000C0F3810002281BD16868C00318D597FAFE
:1007A000A7F0B0FA80F040F02000400901D028689E
:1007B00000E0686A97FAA7F1B1FA81F101F01F0130
:1007C00006FA01F108425ED0606800287CD05AE049
:1007D0006068B0F5803F0BD010B1B0F5A02F11D0FC
:1007E000286820F480302860286820F4802002E007
:1007F000286840F480302860606828B3FFF7FAFD6D
:1008000080460BE0286840F480202860F0E700BFB5
:10081000FFF7F0FDA0EB0800642871D897FAA7F065
:10082000B0FA80F040F02000400901D0286800E0D4
:10083000686A97FAA7F1B1FA81F101F01F0106FA8F
:1008400001F10842E4D01EE0FFF7D4FD804605E048
:10085000FFF7D0FDA0EB08006428DED897FAA7F0D8
:10086000B0FA80F040F02000400901D0286800E094
:10087000686A97FAA7F1B1FA81F101F01F0106FA4F
:1008800001F10842E4D12078DFF8D08280074FF0F0
:1008900000094FF002075BD568684FF0F80B10F0C5
:1008A0000C0F07D06868C0F3810002281CD168686B
:1008B000C00319D497FAA7F0B0FA80F040F02000F6
:1008C000400902D0286801E08BE0686A97FAA7F136
:1008D000B1FA81F101F01F0106FA01F108422CD0B2
:1008E000206901287DD128E0206990B396FAA6F00E
:1008F000B0FA80F048F82060FFF77CFD824607E000
:1009000011E100BFFFF776FDA0EB0A00022884D8B2
:1009100097FAA7F0B0FA80F040F02000400901D02B
:10092000286800E0686A97FAA7F1B1FA81F101F04E
:100930001F0106FA01F10842E4D028689BFAABF2E5
:100940006169B2FA82F220F0F80091400843286011
:1009500025E0FFE796FAA6F1B1FA81F148F8219077
:10096000FFF748FD824605E0FFF744FDA0EB0A00D3
:100970000228CCD897FAA7F0B0FA80F040F0200017
:10098000400901D0286800E0686A97FAA7F1B1FA37
:1009900081F101F01F0106FA01F10842E4D120784B
:1009A00000076ED5A069B8B396FAA6F0B0FA80F049
:1009B00008EB8000C0F88064FFF71CFD824605E06C
:1009C000FFF718FDA0EB0A000228A0D897FAA7F0BD
:1009D000B0FA80F040F06000B6EB501F02D12868FA
:1009E0000CE062E197FAA7F0B0FA80F040F0600006
:1009F000B7EB501F01D1286A00E0686A97FAA7F1A7
:100A0000B1FA81F101F01F0106FA01F21042D7D0CC
:100A10000120FFF7DDFB34E0FFE796FAA6F1B1FA1B
:100A200081F108EB8101C1F88094FFF7E3FC824675
:100A300006E000BFFFF7DEFCA0EB0A00022872D838
:100A400097FAA7F0B0FA80F040F06000B6EB501FC4
:100A500001D128680BE097FAA7F0B0FA80F040F0D7
:100A60006000B7EB501F01D1286A00E0686A97FA6E
:100A7000A7F1B1FA81F101F01F0106FA01F210426B
:100A8000D8D12078400765D5E86940F08050E8610A
:100A9000E869DFF8CCB000F080500090DBF800107F
:100AA00041F48071CBF80010FFF7A4FC824605E00A
:100AB000FFF7A0FCA0EB0A00642834D8DBF80000A4
:100AC000C005F5D5E06801280AD008B1052813D083
:100AD000286A20F001002862286A20F0040002E061
:100AE000286A40F001002862E06841F2883B90B338
:100AF000FFF780FC82460BE0286A40F00400286281
:100B0000EEE700BFFFF776FCA0EB0A0159450AD8D3
:100B100097FAA7F0B0FA80F040F04000B6EB501F13
:100B200002D128680CE0A3E097FAA7F0B0FA80F0B1
:100B300040F04000B7EB501F01D1286A00E0686A1E
:100B400097FAA7F1B1FA81F101F01F0206FA02F15A
:100B50000842D7D031E005E00010024000004242D8
:100B600000700040FFF746FC824605E0FFF742FCBC
:100B7000A0EB0A0159457BD897FAA7F0B0FA80F0AC
:100B800040F04000B6EB501F01D128680BE097FA07
:100B9000A7F0B0FA80F040F04000B7EB501F01D151
:100BA000286A00E0686A97FAA7F1B1FA81F101F0CA
:100BB0001F0206FA02F10842D8D1E06980B36968E1
:100BC000C1F38101022970D04FF080714F000228DB
:100BD000484609D091FAA1F1B1FA81F148F8210013
:100BE000FFF708FC044669E08A4691FAA1F1B1FAE0
:100BF00081F1C14648F82100FFF7FCFB804605E083
:100C0000FFF7F8FBA0EB0800022854D897FAA7F0EA
:100C1000B0FA80F040F02000400902D0286801E0DE
:100C200061E0686A97FAA7F1B1FA81F101F01F015A
:100C300006FA01F10842E3D1206AB0F5803F05D100
:100C40006868A16820F4003008436860D4E90801AE
:100C50000843696821F47411084368609AFAAAF09D
:100C6000B0FA80F049F82060FFF7C4FB044606E0C4
:100C700021E000BFFFF7BEFB001B02281BD897FA3C
:100C8000A7F0B0FA80F040F02000400901D02868B9
:100C900000E0686A97FAA7F1B1FA81F101F01F014B
:100CA00006FA01F10842E5D01DE01EE0FFF7A2FBC5
:100CB000001B022802D90320BDE8F88F97FAA7F09D
:100CC000B0FA80F040F02000400901D0286800E030
:100CD000686A97FAA7F1B1FA81F101F01F0106FAEB
:100CE00001F10842E2D10020E6E70120E4E74FF0FD
:100CF000E0210428086903D020F00400086170474F
:100D000040F00400FAE7704710B5401EB0F1807F54
:100D100001D3012010BD4FF0E02460610F21601766
:100D200000F000F90020A06107202061002010BD24
:100D300010B5FFF7E8FF10BDFEE7000010B5094C45
:100D4000012240212046FFF74FFB0120FFF740FA28
:100D5000002240212046FFF747FBBDE8104001205C
:100D6000FFF736BA0010014019B1C030C0B200F030
:100D70006BB88030FAE7000010B5002000F044F8AE
:100D8000002210210F48FFF72FFB032000F03CF852
:100D9000FFF7D4FFFFF7D2FFFFF7D0FF022000F0EC
:100DA00033F8FFF7CBFF282000F04EF80C2000F0BE
:100DB0004BF8062000F048F8BDE81040012000F094
:100DC00043B800000010014070B5084C05460122F0
:100DD00010212046FFF708FB284600F035F8204692
:100DE000BDE8704000221021FFF7FEBA001001405C
:100DF00010B5044603E000BFFFF7E6FF641C20784F
:100E00000028F9D110BD000070B50E4D044600F069
:100E1000010280212846FFF7E7FAC4F34002A91532
:100E20002846FFF7E1FAC4F3800269152846FFF768
:100E3000DBFAC4F3C00229152846BDE87040FFF76D
:100E4000D3BA00000010014010B504460009FFF7B6
:100E5000DBFFFFF773FF2046FFF7D6FFBDE810402A
:100E6000FFF76CBF70B52B4886B0816941F0200157
:100E70008161816901F020010491816941F01001D3
:100E80008161816901F010010491816941F00401DF
:100E900081618069204E00F004004FF4FE650490EB
:100EA000002229463046FFF79FFA0F2000901B488A
:100EB0000124CDE9010469463046FFF7A1F902207B
:100EC000CDE90054039069463046FFF799F90022B6
:100ED00011460620FFF70CFB0620FFF7FDFA002263
:100EE00011460720FFF704FB0720FFF7F5FA002261
:100EF00011460820FFF7FCFA0820FFF7EDFA002260
:100F000011460920FFF7F4FA0920FFF7E5FA06B0C9
:100F100070BD0000001002400010014000001110E0
:100F2000FEE770470907090E002806DA00F00F00F7
:100F300000F1E02080F8141D704700F1E02080F8F7
:100F4000001470477047704710B5FFF759FABDE8B5
:100F50001040FFF7EDBE30B58FB0022501200490A0
:100F600000951020059000244FF42010CDE9084092
:100F700007956846FFF7FCFB00B1FEE70F20CDE9BF
:100F80000A054FF48060CDE90C4001210AA80E94B7
:100F9000FFF7E0FA00B1FEE7FFF7A0FB4FF47A712C
:100FA000B0FBF1F0FFF7B0FE0420FFF7A0FE002237
:100FB0001146501EFFF79CFA0FB030BD0D48016876
:100FC00041F00101016041680B4A11404160016834
:100FD0000A4A11400160016821F4802101604168E2
:100FE00021F4FE0141604FF41F0181600449C003F8
:100FF00008607047001002400000FFF8FFFFF6FE97
:1010000008ED00E0FEE702E008C8121F08C1002A50
:10101000FAD170477047002001E001C1121F002A79
:10102000FBD17047FFF7F4F9FFF795FFFFF71AFFC1
:10103000FFF7A2FE194C206830B900210846FFF7DF
:1010400093FE17A0FFF7D4FE2068012806D10121E6
:101050000020FFF789FE16A0FFF7CAFE20680228CD
:1010600006D101210020FFF77FFE15A0FFF7C0FE8B
:101070002068032806D101210020FFF775FE14A087
:10108000FFF7B6FE20680428D5D101210020FFF724
:101090006BFE14A0FFF7ACFECDE7000008000020B7
:1010A00042616D206E75742064652063686F6E0008
:1010B000436875205469656E205468696E68000045
:1010C00054657374206E7574206E68616E20000024
:1010D0007878787878787878787878787878787890
:1010E00000000000454E4420202020202020202009
:1010F0002020202000000000000000000000000070
:101100000102030406070809281100080000002056
:101110000C00000006100008341100080C0000202C
:10112000040400001610000800A24A040000000099
:0411300000000000BB
:0400000508000131BD
:00000001FF
