:020000040800F2
:1020000088060020E1220008E9220008EB220008EF
:10201000ED220008EF220008F12200080000000075
:10202000000000000000000000000000F322000893
:10203000F522000800000000F7220008F92200083D
:10204000FB220008FB220008FB220008FB220008FC
:10205000FB220008FB220008FB220008FB220008EC
:10206000FB220008FB220008FB220008FB220008DC
:10207000FB220008FB220008FB220008FB220008CC
:10208000FB220008FB220008FB220008FB220008BC
:10209000FB220008FB220008FB220008FB220008AC
:1020A000FB220008FB220008FB220008FB2200089C
:1020B000FB220008FB220008FB220008FB2200088C
:1020C000FB220008FB220008FB220008FB2200087C
:1020D000FB220008FB220008FB220008FB2200086C
:1020E000FB220008FB220008FB220008DFF80CD0CE
:1020F00003F008FF004800472D2300088806002051
:102100000CB50020019000906B48006840F48030CE
:102110006949086000BF6848006800F4003000901A
:102120000198401C0190009818B90198B0F5A06F73
:10213000F1D16148006810F4003F02D00120009006
:1021400001E0002000900098012842D15B4800681F
:1021500040F01000594908600846006820F003006C
:1021600008600846006840F0020008605248406875
:10217000514948600846406848600846406840F455
:10218000806048600846406820F47C10486008463B
:10219000406840F4E81048600846006840F08070ED
:1021A000086000BF4448006810F0007FFAD0424841
:1021B000406820F00300404948600846406840F00D
:1021C0000200486000BF3C48406800F00C0008284E
:1021D000F9D10CBD10B5FFF793FF10BD10B536480F
:1021E000006840F0010034490860084640683449FE
:1021F00008403149486008460068324908402E4985
:1022000008600846006820F480200860084640689E
:1022100020F4FE0048604FF41F008860FFF7DAFFEB
:1022200029482A49086010BD10B50021002000226D
:10223000214B5B6803F00C0121B1042906D0082969
:1022400028D107E0224B234C236027E0204B214C70
:10225000236023E0184B5B6803F47010164B5B6837
:1022600003F48032022303EB904022B91A4B43431C
:10227000184C23600DE0104B5B6813F4003F04D052
:10228000154B4343134C236003E0114B4343114C64
:10229000236003E00E4B0F4C236000BF00BF064BD2
:1022A0005B68C3F303130D4CE15C0A4B1B68CB4026
:1022B000084C236010BD00000010024000200240C6
:1022C0000000FFF8FFFFF6FE0020000808ED00E028
:1022D00000127A000000002000093D0004000020E8
:1022E0000648804706480047FEE7FEE7FEE7FEE7B0
:1022F000FEE7FEE7FEE7FEE7FEE7FEE7DD2100087A
:10230000ED20000808B50121102002F053FB102039
:102310008DF8030003208DF802004FF40050ADF853
:1023200000006946244802F00DFC08BD08B500F025
:1023300078F8FFF7E7FF002220A1214801F00BF910
:102340000A2220A1224801F02EF90446FCB96B466E
:102350000B2220A11E4801F0C1FA1D4801F0DFFB4D
:102360000446A4B900980B2811D10FE04FF4005196
:10237000114802F092FC642000F064F84FF4005120
:102380000D4802F08CFC642000F05CF8EEE711E0F0
:102390004FF40051084802F080FC4FF4FA7000F04E
:1023A00051F84FF40051044802F079FC4FF4FA70F0
:1023B00000F048F8ECE700000010014000000000C9
:1023C0003000002048656C6C6F2E7478740000003B
:1023D0006002002048656C6C6F20576F726C64005F
:1023E0003EB500240121022002F0F1FA1B480068EA
:1023F0001B49B0FBF1F0401E84B24FF6FF70ADF800
:102400000400ADF800400020ADF80600ADF8020071
:102410006946144802F03CFF0121124803F094FA87
:102420003EBD10B5FFF7DCFF10BD10B5044600211E
:102430000C4803F01DFD00BF0A4803F03CFDA0421C
:10244000FAD310BD10B5044604E04FF47A70FFF7DC
:10245000ECFF641E002CF8D110BD0000000000202D
:1024600040420F000004004000B587B0012108037E
:1024700002F0A0FA0121042002F09CFA18208DF845
:102480001B0003208DF81A00A020ADF8180006A943
:102490002B4802F057FB10208DF81B0003208DF80D
:1024A0001A001020ADF8180006A9254802F04AFBD2
:1024B0001021234802F0F1FB04208DF81B000320BB
:1024C0008DF81A004020ADF8180006A91C4802F04B
:1024D00039FB0020ADF804004FF48270ADF806001F
:1024E0000020ADF80800ADF80A00ADF80C004FF47C
:1024F0000070ADF80E001820ADF810000020ADF807
:1025000012000720ADF8140001A90E4802F08CFC5F
:1025100001210C4802F02DFD07B000BD10B50446A6
:102520002146084802F056FD00BF8021054802F010
:10253000A4FD0128F9D0034802F04EFDC0B210BD41
:102540000008014000300140014648780A7842EA1C
:10255000002070470146C8788A7842EA00204A780D
:1025600042EA00200A7842EA0020704700F8011B86
:10257000091200F8011B704700F8011B090A00F856
:10258000011B090A00F8011B090A00F8011B70472A
:1025900030B503460C463AB100BF14F8015B03F8AE
:1025A000015B551E2A00F8D130BD10B5034600BFAF
:1025B00003F8011B541E2200FAD110BDF0B50346EA
:1025C0001D460C46002000BF15F8017B14F801CB16
:1025D000A7EB0C00561E320001D00028F4D0F0BD4D
:1025E000024600E0521C107810B110788842F9D1F0
:1025F000107870470146F948007888420FDCF748A8
:102600004078884201DB01207047F4488078884296
:1026100005DCF248C078884201DB0120F4E70020A5
:10262000F2E70146ED480079884219DCEB48407931
:10263000884201DB01207047E8488079884205DC48
:10264000E648C079884201DB0120F4E7E348007ADC
:10265000884205DCE148407A884201DB0120EAE754
:102660000020E8E770B504460025E078E8B160781E
:10267000012304F13001E26A01F072FFA0B90020E9
:10268000E070216AE06A401AA16988420DD2A07800
:1026900002280AD1A369E16ACA186078012304F10B
:1026A000300101F05DFF00E00125284670BD70B5E6
:1026B00004460D460026E06AA84210D02046FFF7E7
:1026C000D1FF06465EB9607801232A4604F1300145
:1026D00001F009FF10B14FF0FF350126E5623046E9
:1026E00070BD70B504462046FFF7BCFF0546002DBF
:1026F00038D1207803282ED1207901282BD142020D
:10270000002104F13000FFF750FF4AF6552104F292
:102710002E20FFF72BFFB24904F13000FFF72CFF0A
:10272000B04904F50570FFF727FF04F5067021692D
:10273000FFF722FF04F50770E168FFF71DFFE0696E
:10274000401CE0626078012304F13001E26A01F08C
:1027500007FF0020207160780022114601F04CFF35
:1027600000B10125284670BD0246891E5069801EB1
:10277000884201D8002070475389906A03FB01000A
:10278000F9E72DE9F04781460C46D9F80050022CB4
:1027900002D36869A04202D84FF001085EE04FF012
:1027A000FF382878012804D002282CD0032851D1E2
:1027B0003CE0264606EB5606286A00EB56212846E2
:1027C000FFF775FF00B148E03046761CC0F3080102
:1027D00005F13000475C286A00EB56212846FFF7D8
:1027E00066FF00B139E0C6F3080105F13000405C36
:1027F00047EA002714F0010F01D0380901E0C7F3C0
:102800000B00804629E0286A00EB14212846FFF7D8
:102810004EFF00B121E040F2FF1101EA440205F150
:1028200030015018FFF790FE804616E0286A00EB52
:10283000D4112846FFF73BFF00B10EE040F2FF1134
:1028400001EA840205F130015018FFF783FE20F001
:10285000704802E04FF0010800BF00BF4046BDE8ED
:10286000F0872DE9F04704460D4616464FF0020961
:10287000022D76D36069A84273D92078012804D04C
:1028800002284BD003280DD160E02F4607EB5707F5
:10289000206A00EB57212046FFF709FF8146B9F176
:1028A000000F00D077E038467F1CC0F3080104F128
:1028B000300001EB000815F0010F05D0F1B298F8D7
:1028C000000061F31F1000E0304688F8000001208E
:1028D000E070206A00EB57212046FFF7E8FE8146B2
:1028E000B9F1000F00D056E0C7F3080104F1300041
:1028F00001EB000815F0010F02D0C6F3071008E045
:1029000098F8000000F0F000C6F3072101F00F0175
:10291000084388F800000120E0703CE0206A00EBEA
:1029200015212046FFF7C3FE8146B9F1000F00D004
:1029300031E0B1B240F2FF1202EA450304F1300285
:102940009818FFF713FE0120E07024E0206A00EBE6
:10295000D5112046FFF7ABFE8146B9F1000F01D03B
:1029600019E019E040F2FF1101EA850204F130019B
:102970005018FFF7EFFD66F31B00064640F2FF110B
:1029800001EA850204F1300150183146FFF7F4FDE9
:102990000120E07000BF00BF4846BDE8F0872DE988
:1029A000F04781460E4617464FF00008D9F8004020
:1029B000022E02D36069B04202D80220BDE8F0873F
:1029C00097B100BF4FF0FF3239462046FFF749FF6D
:1029D0008046B8F1000F07D04046EFE7465F000899
:1029E000525261417272416100BF31464846FFF761
:1029F000C8FE054605B922E0012D01D10220DDE720
:102A0000681C01D10120D9E7002231462046FFF79A
:102A100028FF8046B8F1000F01D04046CEE7D4E948
:102A20000410801E814206D22069401C206120795A
:102A300040F0010020712E466069B042D5D800BF39
:102A40000020BBE72DE9F04782468846DAF80040CF
:102A5000B8F1000F06D1E76817B16069B84215D820
:102A6000012713E041465046FFF78BFE0546022D35
:102A700002D20120BDE8F087681C01D12846F9E7A1
:102A80006069A84201D92846F4E74746206908B999
:102A90000020EFE70026474518D17E1C6069B04250
:102AA00000D8022631465046FFF76BFE0546012D41
:102AB00001D0681C01D12846DCE73DB1E568022D54
:102AC00003D36069A84200D92F460026E6B93E46E6
:102AD00000BF761C6069B04204D80226BE4201D90C
:102AE0000020C7E731465046FFF74BFE054605B9C3
:102AF00009E0012D01D0681C01D12846BAE7BE4289
:102B0000E7D10020B6E700BF4FF0FF323146204644
:102B1000FFF7A7FE8146B9F1000F08D1B8F1000F09
:102B200005D0324641462046FFF79BFE8146B9F16B
:102B3000000F0DD1E660D4E90410801E814202D856
:102B40002069401E2061207940F00100207107E0DB
:102B5000B9F1010F02D14FF0FF3000E0012006462D
:102B6000304687E72DE9F047044689462046FFF7BF
:102B700079FD10B10120BDE8F08749462046FFF7F6
:102B8000F3FD0646E6624FF40072002104F13000C6
:102B9000FFF70BFD04F130080127002500E03D445C
:102BA0006089A84207D9721960783B46414601F016
:102BB000D7FC0028F3D06089A84201D00120DAE7D1
:102BC0000020D8E72DE9F04104460D462668B5F50A
:102BD000001F02D215F01F0F02D00220BDE8F081C5
:102BE0002561A7681FB93078032800DB776A47B9E9
:102BF0003089B0EB551F01D80220EFE7706AA06161
:102C00001CE070894FEA402811E039462046FFF762
:102C1000B8FD0746781C01D10120DFE7022F02D35F
:102C20007069B84201D80220D8E7A5EB08054545F0
:102C3000EBD239463046FFF797FDA0616761A06986
:102C400008B90220CAE7A06900EB5520A061C5F3CE
:102C5000080106F130000844E0610020BEE72DE9DC
:102C6000F041044688462768206900F12006B6F541
:102C7000001F01D30020A061A06910B90420BDE8A5
:102C8000F081F005C00D45D1A069401CA0616069CC
:102C900038B93889B0EB561F3CD80020A061042019
:102CA000EDE77889401E10EA562F33D1204661693E
:102CB000FFF767FD0546012D01D80220DFE7681CFC
:102CC00001D10120DBE77869A8421DD8B8F1000FD7
:102CD00003D10020A0610420D1E720466169FFF7FD
:102CE000B1FE05460DB90720C9E7012D01D102202B
:102CF000C5E7681C01D10120C1E729463846FFF726
:102D000031FF08B10120BAE7656129463846FFF76F
:102D10002BFDA0612661C6F3080107F130000844CD
:102D2000E0610020ABE72DE9F04104460E46D4F8FF
:102D3000008000212046FFF745FF0546EDB900273A
:102D400000BF4046A169FFF7B2FC054605B113E09C
:102D5000E0690078E52802D0E069007820B9781CA5
:102D60000746B04201D107E0002701212046FFF7C6
:102D700076FF0546002DE4D000BF042D00D10725C5
:102D80002846BDE8F08170B505460C4604F11A00EE
:102D9000FFF7DAFB06462878032805D104F1140072
:102DA000FFF7D2FB46EA0046304670BD70B50646D6
:102DB0000C461546A9B204F11A00FFF7D7FB30788C
:102DC000032804D1290C04F11400FFF7CFFB70BDD8
:102DD0002DE9F047044688460425D4F8009027E002
:102DE0004846A169FFF763FC054605B123E0E069A9
:102DF00006780EB904251EE0E069C07A00F03F07AE
:102E0000A771E52E0DD02E2E0BD00F2F09D027F055
:102E10002000082801D1012000E00020404500D119
:102E200009E000212046FFF71AFF054605B102E040
:102E3000A0690028D4D100BF0DB10020A0612846B0
:102E4000BDE8F0872DE9F0410446276800212046BF
:102E5000FFF7B8FE054615B12846BDE8F08100BF72
:102E60003846A169FFF723FC054605B11DE0E0697E
:102E700006780EB9042518E0E069C07A00F03F003A
:102E8000A071E069C07A10F0080F07D10B2204F19D
:102E90002001E069FFF792FB00B906E0002120461F
:102EA000FFF7DDFE0546002DDAD000BF2846D4E747
:102EB00070B50446266801212046FFF734FF054619
:102EC00095B93046A169FFF7F2FB054665B92022A6
:102ED0000021E069FFF769FB0B2204F12001E069A2
:102EE000FFF756FB0120F070284670BD70B5044610
:102EF00026683046A169FFF7DAFB054625B9E520CB
:102F0000E16908700120F070284670BD2DE9F0419C
:102F100005460C4600206072A86908B9BDE8F0813A
:102F2000002637461CE03046761CEA6912F800801D
:102F3000B8F1200F00D113E0B8F1050F01D14FF027
:102F4000E508092E05D12E2238467F1C04F109011F
:102F50000A5438467F1C04F1090101F8008000BFC3
:102F60000B2EE0D3002104F10900C155E869C07AB5
:102F70002072E96901F11C00FFF7ECFA2060E969B1
:102F800001F11600FFF7E0FAE080E96901F11800AD
:102F9000FFF7DAFAA08000BFC0E72DE9F35F8946AA
:102FA000D9F80080009800F120050B222021284646
:102FB000FFF7FBFA0020074606464FF0080B00BF5C
:102FC0003046761C18F80040202C00DC4AE02F2CFC
:102FD00001D05C2C0AD100E0761C18F806002F28DE
:102FE000FAD018F806005C28F6D03BE02E2C01D071
:102FF0005F450BD3BBF10B0F01D02E2C02D0062066
:10300000BDE8FC9F08274FF00B0BD9E72046FFF7E0
:10301000F1FAA8B13046761C18F800A05046FFF728
:1030200000FB18B1ABF10100B84201D80620E7E778
:1030300038467F1C2C5438467F1C05F800A010E051
:103040002146F7A0FFF7CCFA08B10620D8E7612C9B
:1030500004DB7A2C02DCA4F12000C4B238467F1CC9
:103060002C54ADE700BF08EB0600C9F800000FB90B
:103070000620C5E72878E52801D105202870202CF6
:1030800001DC042000E00020E8720020B8E72DE910
:10309000F3410446276802E00198401C0190019822
:1030A00000782F28F8D0019800785C28F4D0002010
:1030B000A06001980078202808D280212B2001559B
:1030C00000212046FFF77EFD05462CE000BF01A948
:1030D0002046FFF762FF054605B123E02046FFF7D3
:1030E000B1FE05462B20065D3DB1042D04D100BF85
:1030F00016F0040F00D1052514E016F0040F00D0DF
:1031000010E0A07910F0100F01D105250AE0208A07
:10311000C0F3080207F1300011183846FFF733FEFC
:10312000A060D4E700BF2846BDE8FC8170B5044626
:103130004FF0FF3026683146324601B970BD00BFFE
:1031400012F8013B212B01D33A2BF9D13A2B11D1A3
:1031500001250E78302E08DB0E78392E05DC8E1C0A
:10316000964202D10E78A6F13005012D01DA2846EB
:103170002260E3E7002000BFE0E770B504460D469B
:103180000020E070401EE06229462046FFF78FFADB
:1031900008B1042070BD04F22E20FFF7D5F9A0F588
:1031A0002A41553901D00320F4E700BF94F83000DC
:1031B000E92807D094F83000EB2803D094F83000C9
:1031C000E82811D103229AA104F16600FFF7F6F96D
:1031D00008B90020DEE7052296A104F18200FFF77E
:1031E000EDF908B90020D5E70220D3E72DE9FF412A
:1031F00007460D4600213846FFF7BFFF0646022E60
:1032000006D0032E00D21DB9304604B0BDE8F081CF
:1032100000BF00240AE007F5F77101EB041101F18A
:103220000800FFF797F94DF82400641C042CF2D332
:103230000DB1681E00E00020044600BF5DF82400C8
:1032400028B15DF824103846FFF797FF00E003200F
:1032500006462DB9022E03D3601C04460428EDD384
:103260003046D2E72DE9F74F84B000210598016080
:103270000498FFF75BFF03900398002803DA0B2004
:1032800007B0BDE8F08F6D49039851F820400CB9A4
:103290000C20F5E705980460069800F0FE00069003
:1032A000207878B1607801F08BF8074617F0010FAD
:1032B00008D1069820B117F0040F01D00A20DFE7EB
:1032C0000020DDE70020207003986070607801F036
:1032D0007EF8074617F0010F01D00320D0E70698CB
:1032E00020B117F0040F01D00A20C9E700212046C1
:1032F000FFF77CFF0546042D01D10120C0E7022D18
:1033000001D30D20BCE7D4F82C9004F13B00FFF76B
:103310001BF9B0F5007F01D00D20B1E704F14600A4
:10332000FFF712F9064626B904F15400FFF712F927
:103330000646A6614020005DA070A078012804D058
:10334000A078022801D00D209AE7A07846433D20BE
:10335000005D6081608918B16089411E084201D01A
:103360000D208DE704F14100FFF7EEF82081207A6F
:1033700010F00F0F01D00D2082E704F14300FFF79A
:10338000E3F88246BAF1000F04D104F15000FFF7D0
:10339000E1F8824604F13E00FFF7D6F88346BBF120
:1033A000000F01D10D206BE70BEB0600218900EB2C
:1033B000111002900298824501D20D2060E7029818
:1033C000AAEB00006189B0FBF1F8B8F1000F01D160
:1033D0000D2055E700251A48804500D803254FF6F3
:1033E000F570804500D8022540F6F570804500D87C
:1033F00001250DB90D2043E708F102006061C4F812
:103400001C9009EB0B00206202984844A062032D37
:1034100025D104F15A00FFF797F898B10D202FE756
:10342000222A2B2C3A3B3C3D3E3F5B5D7C7F0000DB
:10343000464154004641543332000000140000203D
:10344000F5FFFF0F208908B10D2019E704F15C009A
:10345000FFF780F8606260698000019014E02089C5
:1034600008B90D200CE7206A30446062022D02D1B9
:103470006069400007E0207D00F00100616901EB18
:10348000410100EB51000190A169019800F2FF1089
:10349000B1EB502F01D20D20F2E64FF0FF3020614A
:1034A000E06080202071032D2DD104F16000FFF732
:1034B0004BF8012827D109F101012046FFF7F7F861
:1034C00008BB0020207104F22E20FFF73DF8A0F584
:1034D0002A41553917D104F13000FFF73BF8FA497A
:1034E000884210D104F50570FFF734F8F749884297
:1034F00009D104F50670FFF72DF8206104F5077077
:10350000FFF728F8E0602570F1480088401C80B281
:10351000EF490880E0800020B2E670B504460D4611
:1035200009268CB1206878B12068007860B1A08845
:103530002168C988884207D12168487800F040FF97
:1035400010F0010F00D100260EB9206800E0002025
:103550002860304670BDF7B582B0164603980190DA
:1035600001A8FFF7E3FD0546002D02DA0B2005B0A8
:10357000F0BDD84850F825400CB1002020700298CA
:1035800010B1002002990870D249029841F8250034
:103590000EB90020EBE7002202A903A8FFF762FEA4
:1035A00007463846E3E72DE9F74F8CB00446164648
:1035B0001CB909200FB0BDE8F08F06F03F06324677
:1035C00069460DA8FFF74EFE0546002D7ED10098F6
:1035D000019001A80D99FFF75AFD05462DB99DF8F8
:1035E0002F0010F0800F00D0062516F01C0F4CD0D5
:1035F00045B1042D03D101A8FFF75AFC054646F05A
:1036000008060AE09DF80A0010F0110F01D0072506
:1036100003E016F0040F00D00825002D46D116F067
:10362000080F43D008990098FFF7ADFB8146089931
:1036300001F10E00A849FEF79FFF20200899C872EB
:10364000002208990098FFF7B1FB089901F11C00CE
:103650000021FEF791FF01200099C870B9F1000F19
:1036600024D00098D0F82CA00022494601A8FFF7EA
:1036700096F90546D5B951460098FFF718F8054662
:10368000A9F101000099C86010E07DB99DF80A0019
:1036900010F0100F01D0042508E016F0020F05D03D
:1036A0009DF80A0010F0010F00D007254DB916F063
:1036B000080F01D046F040060098C06A20620898C2
:1036C0006062002D48D10899009800E040E0FFF7C3
:1036D0005AFBA060089901F11C00FEF73BFFE06077
:1036E000009820600098C088A08026740020607434
:1036F000E061606116F0200F2ED0E06840B3E06812
:103700006061009840894FEA402BA768D4F80C808C
:103710000CE039462046FFF734F80746012F00D861
:103720000225781C00D10125A8EB0B080DB9D8455E
:10373000EFD8A76165B9C8F3080000280CD0394656
:103740000098FFF711F88246BAF1000F01D1022567
:1037500002E00AEB5820E0610DB10020206028460D
:1037600028E72DE9FF4F85B0044615469A46DDF857
:1037700018B00020CAF8000003A92046FFF7CDFECC
:103780000490049810B9607C049018B1049809B0B2
:10379000BDE8F08F207C10F0010F01D10720F6E783
:1037A0006169E068401A01900198854200D9019D45
:1037B00084E0A08AC005C00D5BD103984089401EFB
:1037C000616900EA5129B9F1000F17D1606910B998
:1037D000A068029004E02046A169FEF7D2FF0290A3
:1037E0000298022802D202206074D0E70298401C9E
:1037F00002D101206074CAE70298A061A169039810
:10380000FEF7B2FF064616B902206074BFE74E44C9
:103810004FEA5528B8F1000F2AD009EB08000399A8
:103820004989884203D903984089A0EB0908039984
:10383000487843463246594600F055FE10B1012003
:103840006074A4E70398C07878B10398C06A801BBD
:1038500040450AD20399C96A891B0BEB41204FF4FA
:10386000007203993031FEF793FE4FEA48271BE0C0
:10387000E661A08AC0F30800C0F50077AF4200D926
:103880002F46E1690398FEF712FF10B10120607422
:103890007DE7A08AC0F308020398303011183A4639
:1038A0005846FEF775FE00BFED1BDAF800003844FD
:1038B000CAF80000BB44606938446061002D7FF4A1
:1038C00078AF002063E7000052526141727241619B
:1038D00018000020140000200000214E2DE9FF4FA9
:1038E00083B0044615469B46049800900020CBF810
:1038F000000001A92046FFF710FE0290029810B9BF
:10390000607C029018B1029807B0BDE8F08F207C6F
:1039100010F0020F01D10720F6E700BF60692844CC
:103920006169884202D26069C0F1FF35B4E0A08AC3
:10393000C005C00D7DD101984089401E616900EA33
:10394000512ABAF1000F1ED1606938B9A76857B97A
:1039500000212046FFF776F8074604E02046A169DB
:10396000FFF770F8074607B999E0012F02D102204E
:103970006074C9E7781C02D101206074C4E7A761B4
:10398000A06800B9A7600198C06AE169884206D1C1
:103990000198FEF767FE10B101206074B4E7A169D9
:1039A0000198FEF7E1FE064616B902206074ABE707
:1039B00056444FEA5529B9F1000F2BD00AEB090004
:1039C00001994989884203D901984089A0EB0A09E5
:1039D000019948784B463246009900F0C1FD10B17C
:1039E0000120607490E70198C06A801B48450ED2A0
:1039F0000198C06A801B009A02EB40214FF40072CC
:103A000001983030FEF7C4FD00200199C8704FEADC
:103A100049282CE0E1686069884209D30198FEF7E3
:103A200021FE18B1012060746EE702E00198C662C1
:103A3000E661A08AC0F30800C0F50078A84500D967
:103A4000A846E1690198FEF732FE10B101206074CA
:103A50005AE7A18AC1F30802019930315018424651
:103A60000099FEF795FD01200199C87000BFA5EBF4
:103A70000805DBF800004044CBF800000098404403
:103A80000090606940446061E1686069884201D9E2
:103A9000606900E0E068E060002D7FF448AF00BF9F
:103AA000207C40F04000207400202DE7F8B504464B
:103AB00069462046FFF731FD064676BB207C10F0B4
:103AC000400F2AD0F74F216A0098FEF7F0FD064616
:103AD0001EBB656AE87A40F02000E8722946A268B9
:103AE0002068FFF763F905F11C00E168FEF744FD6B
:103AF000394605F11600FEF73FFD002105F11200E1
:103B0000FEF734FD01200099C8700098FEF7E9FD2A
:103B10000646207C00F0BF0020743046F8BD38B562
:103B200005462846FFF7C2FF04463CB969462846C9
:103B3000FFF7F3FC04460CB900202860204638BD8E
:103B40002DE9F84F04460E4669462046FFF7E5FC8E
:103B50008246BAF1000F01D194F811A0BAF1000F1A
:103B600002D05046BDE8F88FE068B04204D2207C15
:103B700010F0020F00D1E668D4F814904FF000085E
:103B8000C4F81480002E68D0009840894702B9F12B
:103B9000000F11D0701EB0FBF7F1A9F10100B0FBCE
:103BA000F7F0814208D3A9F10100791E88436061D2
:103BB0006069361AA56912E0A5687DB90021204622
:103BC000FEF740FF0546012D02D102206074C9E7CF
:103BD000681C02D101206074C4E7A560A561002DB6
:103BE0003BD024E0F61B606938446061207C10F013
:103BF000020F08D000BF29462046FEF723FF0546E6
:103C000035B9002615E029462046FEF7BAFD0546DF
:103C1000681C02D101206074A4E7012D03D900982B
:103C20004069A84202D8022060749BE7A561BE42A9
:103C3000D8D800BF606930446061F005C00D0CD079
:103C400029460098FEF790FD8046B8F1000F02D19A
:103C50000220607486E708EB5628E16860698842B4
:103C600005D96069E060207C40F040002074A08AA3
:103C7000C005C00D04D0E069404501D0C4F81C80E7
:103C800050466FE733B581B004460CB909203EBDFC
:103C90000022694602A8FFF7E5FA05461DBB009819
:103CA000206020460299FFF7F2F90546C5B92B209E
:103CB000005D10F0800F0AD1A07910F0100F05D030
:103CC000E1690098FFF75FF8A06000E005253DB9C5
:103CD0000098C088A08000212046FEF773FF0546AB
:103CE000042D00D105250DB1002020602846CEE727
:103CF00038B5044669462046FFF70FFC05460DB966
:103D000000202060284638BDF8B506460D466946B5
:103D10003046FFF702FC0446DCB92DB900213046DD
:103D2000FEF750FF044614E000213046FFF750F83C
:103D30000446042C00D100245CB929463046FFF724
:103D4000E5F800213046FEF78AFF0446042C00D136
:103D500000242046F8BD33B58BB00D4600226946DD
:103D60000BA8FFF77FFA04468CB968460B99FFF75A
:103D70008EF904465CB99DF82B0010F0800F01D03D
:103D8000062404E01DB129466846FFF7BFF8204627
:103D90000DB030BD2DE9F74F86B08846924600221F
:103DA00005A906A8FFF75EFA8146B9F1000F68D1B0
:103DB0000598CAF800000598D0E90410801E8142D9
:103DC00004D805980069C8F800005AE00025059855
:103DD000007801281BD102260598019000BF3146CA
:103DE00001A8FEF7CEFC0746781C02D14FF001096E
:103DF0000CE0012F02D14FF0020907E007B96D1C5A
:103E0000701C0646059949698842E8D32FE0059859
:103E100046690598D0F820B0002400BF54B959462F
:103E20000BF1010B0598FEF742FC8146B9F1000F3A
:103E300000D01BE005980078022808D105993031A0
:103E40000819FEF781FB00B96D1CA41C09E0059957
:103E500030310819FEF77EFB30F0704000D16D1C48
:103E6000241DC4F30804701E0600D7D100BFC8F893
:103E70000050059805610598007940F0010005990A
:103E80000871484609B0BDE8F08FF8B504466946A8
:103E90002046FFF742FB064616B9607C060003D0B9
:103EA0003046F8BD0000214E207C10F0020F01D1F9
:103EB0000720F6E7E168606988422BD2606940B963
:103EC00000222046A168FEF76AFD06460020A06099
:103ED00016E02046A169FEF754FC05460026681C42
:103EE00000D10126012D00D102264EB9009840696B
:103EF000A84205D929462046A269FEF750FD06468C
:103F00006069E060207C40F04000207416B1667467
:103F10003046C6E73046C4E731B598B000250222E6
:103F200001A918A8FFF79EF90446002C46D1019874
:103F30000D900DA81899FFF7AAF8044600BF002CB1
:103F40003CD19DF85F0010F0800F01D0062405E001
:103F50009DF83A0010F0010F00D00724E4B914993D
:103F60000198FEF710FF05469DF83A0010F0100F7B
:103F700012D0019802900495002102A8FEF722FEBB
:103F800004464CB9002102A8FEF722FF044604B9FA
:103F90000724042C00D1002484B90DA8FEF7A6FF45
:103FA000044634B92DB1002229460DA8FEF7F7FCCE
:103FB00004461CB90198FEF794FB0446204619B04C
:103FC00030BDF1B590B00222694610A8FFF74AF95A
:103FD0000446002C72D10098059005A81099FFF7AF
:103FE00056F8044604B9082400BF042C66D1009892
:103FF0000190002101A8FEF725FD0546002405B922
:104000000724012D00D10224681C00D10124734F24
:10401000BCBB29460098FEF7A5FD04468CBB0B22CD
:10402000202100983030FEF7C0FA2E20009981F848
:1040300030001021009880F83B1039460098463037
:10404000FEF79AFA2A46009930310098FEF7AEFE44
:1040500020220099303100985030FEF799FA2E2135
:10406000009880F85110079E324600995031009810
:10407000FEF79CFE01200099C87005A8FEF718FF06
:104080000446B4B90C9901F116003946FEF774FAEA
:104090002A460C990098FEF789FE10200C99C872E8
:1040A00001200099C8701CB90098FEF71AFB04465D
:1040B00004E00022294601A8FEF771FC204611B059
:1040C000F0BDF3B59FB020A8FFF730F8022208A991
:1040D0001FA8FFF7C7F80446002C7CD1089814905D
:1040E00014A81F99FEF7D3FF04462CB99DF87B0056
:1040F00010F0A00F00D00624002C6CD120226846BE
:104100001B99FEF745FA2C2214A909A8FEF740FADC
:1041100009A82099FEF7BBFF04465CB916990B98D5
:10412000884205D118990D98884201D1042000E0F9
:1041300008200446042C44D109A8FEF7B9FE044621
:10414000002C3ED1109D13220DF10D0105F10D0043
:10415000FEF71EFA9DF80B00E872E87A10F0100FD7
:1041600003D1E87A40F02000E87201200899C87075
:10417000E87A10F0100F24D00B991698884220D0BE
:1041800029460898FEF7FFFD074639460898FEF7CE
:10419000EBFA06460EB9022413E031460898FEF702
:1041A00086FA0446089800F1500554B968782E281C
:1041B00007D129460B9A0898FEF7F8FD01200899C7
:1041C000C87044B914A8FEF791FE04461CB90898BB
:1041D000FEF787FA0446204621B0F0BD0000214ECC
:1041E00010B504462046FEF720F910BD70B5044610
:1041F0000D4600BF14F8016B3046FEF78FF9681EBC
:104200000500F7D170BD70B504460D4600BFFF2014
:10421000FEF784F904F8010B681E0500F7D170BDA4
:1042200038B541F288340CE001216846FFF7EBFF16
:104230009DF80000FF2800D105E06420FFF7D0FFC3
:10424000641E002CF0D100BF0CB1012038BD00204D
:10425000FCE708B51021FE4800F01FFD012168466B
:10426000FFF7D1FF08BD08B51021F94800F017FD90
:1042700001216846FFF7C7FFFFF7D2FF08B1012011
:1042800008BDFFF7E6FF0020FAE7F8B505460E4641
:104290004FF47A740CE001216846FFF7B4FF9DF8F3
:1042A0000000FF2800D005E06420FFF799FF641E9E
:1042B000002CF0D100BF9DF80000FE2801D00020A6
:1042C000F8BD31462846FFF79EFF02216846FFF7FA
:1042D0009AFF0120F4E738B505460C46FFF7A0FF2A
:1042E00008B9002038BD8DF8004001216846FFF76D
:1042F0007DFFFD2C14D04FF400712846FFF776FFA8
:1043000002216846FFF77FFF01216846FFF77BFF28
:104310009DF8000000F01F00052801D00020E1E713
:104320000120DFE7FEB504460D4614F0800F0AD0E9
:1043300004F07F0400213720FFF7F4FF0646012E2A
:1043400001DD3046FEBD0C2C06D0FFF782FFFFF7E3
:104350008AFF08B9FF20F5E744F040008DF800001F
:10436000280E8DF80100280C8DF80200280A8DF81F
:104370000300E8B28DF80400012604B99526082C44
:1043800000D187268DF8056006216846FFF72EFFCD
:104390000C2C03D1012102A8FFF735FF0A2600BF2C
:1043A000012102A8FFF72FFF9DF8080010F0800FF1
:1043B00003D0701EC0B20600F2D19DF80800C1E71C
:1043C000014609B101207047A2480078FBE72DE9BA
:1043D000F8438046B8F1000F02D00320BDE8F8830F
:1043E00042F21070FFF7FCFEFEF73EF80A2505E0EA
:1043F00001216846FFF707FF681EC5B2002DF7D1FF
:10440000002600210846FFF78DFF01285DD14FF4FB
:10441000D5710820FFF786FF012832D104216846B4
:10442000FFF7F1FE9DF8020001284ED19DF8030030
:10443000AA284AD14FF47A740BE04FF08041A920AA
:10444000FFF770FF00B906E04FF47A70FFF7C8FE7F
:10445000641E002CF1D100BF002C36D000213A2080
:10446000FFF760FF88BB04216846FFF7CCFE9DF88C
:10447000000010F0400F01D00C2000E004200646A0
:1044800023E00021A920FFF74DFF012802DC0226CE
:10449000A92701E0012601274FF47A740AE00021E0
:1044A0003846FFF73FFF00B906E04FF47A70FFF798
:1044B00097FE641E002CF2D100BF2CB14FF40071A6
:1044C0001020FFF72FFF00B10026634806700EB9D9
:1044D000012000E0002081465E4880F80090FFF750
:1044E000B8FE48467AE72DE9F04781460D46164664
:1044F0001C46B0464846FFF763FF10F0010F02D09C
:104500000320BDE8F0875448007810F0080F01D16F
:104510004FEA4828012C01D9122000E0112007465B
:1045200041463846FFF7FEFE98B900BF4FF40071D0
:104530002846FFF7AAFE00B904E005F50075601EE5
:104540000400F3D100BF122F03D100210C20FFF78C
:10455000E9FEFFF77EFE0CB10120D2E70020D0E794
:104560002DE9F04180460D4616461C46374640462A
:10457000FFF726FF10F0010F02D00320BDE8F08105
:104580003548007810F0080F00D17F02012C0BD1C4
:1045900039461820FFF7C6FE38BBFE212846FFF734
:1045A0009AFE10B3002420E02B48007810F0060F8C
:1045B00003D021469720FFF7B5FE39461920FFF7B3
:1045C000B1FE90B900BFFC212846FFF784FE00B978
:1045D00004E005F50075601E0400F4D100BFFD2164
:1045E0000020FFF778FE00B90124FFF732FE0CB17E
:1045F0000120C3E70020C1E72DE9FF4781460E46B1
:1046000014464846FFF7DCFE10F0010F03D00320EC
:1046100004B0BDE8F087012726B1012E07D0032E94
:1046200057D152E0FFF71FFE00B1002753E00021F1
:104630000920FFF777FEE8BB10216846FFF725FE4B
:10464000C0B39DF800000121B1EBA01F16D105E019
:10465000000801401A0000201B0000209DF80900FE
:104660009DF8081000EB01209DF8071001F03F01B4
:1046700000EB0140451CA802206024E09DF80500E5
:1046800000F00F009DF80A1000EBD1109DF8091002
:1046900001F0030100EB410000F102089DF8080061
:1046A00080119DF8071000EB81009DF8061001F0C5
:1046B000030100E008E000EB8120451CA8F109009F
:1046C00005FA00F02060002705E080202060002728
:1046D00001E0042700BF00BFFFF7BBFD384697E7A6
:1046E000DD48006840F00100DB490860084640688A
:1046F000DA490840D849486008460068D849084067
:10470000D54908600846006820F480200860084603
:10471000406820F4FE0048604FF41F008860704736
:10472000CD49096821F48031CB4A116011460968EE
:1047300021F480211160B0F5803F03D0B0F5802FC7
:104740000ED106E0C449096841F48031C24A1160C3
:1047500007E0C149096841F4A021BF4A116000E0A7
:1047600000BF00BF704710B50146002200230020A3
:104770004A11012A02D1B84C236806E0022A02D16C
:10478000B54C236A01E0B44C636A01F01F020124B6
:1047900094401C4201D0012000E0002010BD38B53B
:1047A000002000900024002500BF3120FFF7DBFF30
:1047B00005460098401C00900098B0F5A06F01D00D
:1047C000002DF2D03120FFF7CEFF08B1012400E028
:1047D0000024204638BD014600209F4A106820F082
:1047E000F80040EAC100106070479E4908607047B9
:1047F00002460020984B586820F47C1042EA0103DE
:104800001843954B586070479649086670470146B3
:104810000020914A506820F0030008435060704720
:104820008D48406800F00C007047014600208A4A1D
:10483000506820F0F00008435060704701460020A7
:10484000854A506820F4E060084350607047014694
:104850000020814A506820F4605040EAC100506056
:10486000704729B17C4A527A02437B4B5A7204E06A
:10487000794A527A8243784B5A7270477A49086073
:10488000704701460020744A506820F440400843B5
:10489000506070470021754A11706F4A82F82010ED
:1048A000012802D0042808D103E001216F4A1170C9
:1048B00004E005216D4A117000E000BF00BF7047A1
:1048C0006B49086070476449096A0143624A116292
:1048D0007047674944390860704730B500210022AD
:1048E000002400235C4D6D6805F00C0121B1042902
:1048F00005D0082923D105E05E4D056022E05D4D1D
:1049000005601FE0544D6D6805F47012524D6D68DE
:1049100005F48034022505EB92421CB9564D5543EF
:1049200005600BE04C4D6D6815F4003F03D0524D0F
:104930005543056002E04F4D5543056002E04D4D83
:10494000056000BF00BF444D6D6805F0F001090926
:104950004A4D6B5C0568DD4045603F4D6D6805F470
:10496000E061090A454D6B5C4568DD4085603A4D64
:104970006D6805F46051C90A404D6B5C4568DD40C7
:10498000C560354D6D6805F44041890B3C4D6B5C4D
:10499000C568B5FBF3F5056130BD29B12E4A5269F2
:1049A00002432D4B5A6104E02B4A526982432A4B41
:1049B0005A61704729B1284A92690243264B9A618D
:1049C00004E0254A92698243234B9A61704729B1DA
:1049D000214AD2690243204BDA6104E01E4AD269BF
:1049E00082431D4BDA61704729B11B4AD2680243EA
:1049F000194BDA6004E0184AD2688243164BDA6039
:104A0000704729B1144A12690243134B1A6104E03A
:104A1000114A12698243104B1A6170471449403998
:104A2000086070470F49C86470470B49C8717047E8
:104A30000948406A40F08070074948627047014663
:104A40000020054A92680A4201D0012000E00020BF
:104A50007047014988727047001002400000FFF85B
:104A6000FFFFF6FE00004242D80042422010024002
:104A70008004424200127A0000093D001C00002020
:104A80002C00002010B50446CA48844208D10121F8
:104A90000420FFF7A9FF00210420FFF7A5FF46E04F
:104AA000C548844208D101210820FFF79DFF00215D
:104AB0000820FFF799FF3AE0C048844208D101215D
:104AC0001020FFF791FF00211020FFF78DFF2EE04F
:104AD000BB48844208D101212020FFF785FF002137
:104AE0002020FFF781FF22E0B648844208D101214F
:104AF0004020FFF779FF00214020FFF775FF16E007
:104B0000B148844208D101218020FFF76DFF0021C8
:104B10008020FFF769FF0AE0AC48844207D10121F9
:104B20008015FFF761FF0021A015FFF75DFF10BDA5
:104B300010B501210846FFF757FF00210120FFF7BC
:104B400053FF10BD2DE9F04102460025002600204C
:104B500000230024002791F803C00CF00F0591F802
:104B600003C01CF0100F03D091F802C04CEA0505F9
:104B700091F800C0BCF1000F31D0146800202BE088
:104B80004FF0010C0CFA00F3B1F800C00CEA030678
:104B90009E4220D183004FF00F0C0CFA03F7BC4368
:104BA00005FA03FC4CEA040491F803C0BCF1280F99
:104BB00006D14FF0010C0CFA00FCC2F814C00AE058
:104BC00091F803C0BCF1480F05D14FF0010C0CFA6D
:104BD00000FCC2F810C0401C0828D1D31460B1F802
:104BE00000C0BCF1FF0F34DD546800202EE000F15E
:104BF000080C4FF0010808FA0CF3B1F800C00CEAF9
:104C000003069E4221D183004FF00F0C0CFA03F7EC
:104C1000BC4305FA03FC4CEA040491F803C0BCF160
:104C2000280F05D100F1080C08FA0CF8C2F814801E
:104C300091F803C0BCF1480F07D100F1080C4FF008
:104C4000010808FA0CF8C2F81080401C0828CED3DE
:104C50005460BDE8F0814FF6FF7101800221817040
:104C60000421C17070470246002093680B4201D0B6
:104C7000012000E0002070470146886880B270473C
:104C800002460020D3680B4201D0012000E0002042
:104C900070470146C86880B2704701617047416142
:104CA00070470AB1016100E041617047C16070471F
:104CB0004FF480320A438261816182618269826934
:104CC000704702460020424B18684FF68073184028
:104CD00040EA021008433E4B186070473D49C861E6
:104CE0007047F0B50A46002300240021002500F09B
:104CF0000046B6F1004F02D1354EF16901E0344E65
:104D00007168C0F3034583B200F44016B6F5401F46
:104D100008D121F070612E4E766826F070662C4F17
:104D20007E6012E000F48016B6F5801F06D10326DF
:104D300006FA05F4A14341F0706106E0460D360124
:104D400003FA06F6B14341F0706122B1460D360117
:104D500003FA06F6314300F00046B6F1004F02D1E7
:104D60001B4EF16101E01A4E7160F0BD30B50022BA
:104D70008B071C0F0F2303FA04F2154B08338C101A
:104D800053F824309343124C08348D1044F82530E6
:104D900023468C1053F824308C07240F00FA04F4B7
:104DA00023430B4C08348D1044F8253030BD0A499C
:104DB0000860704700080140000C014000100140ED
:104DC0000014014000180140001C01400020014077
:104DD0000000014000002042DC00204210B50446E3
:104DE000BE48844208D101218014FFF7FDFD002157
:104DF000A014FFF7F9FD16E0B948844208D101215B
:104E00000014FFF7FEFD00212014FFF7FAFD0AE071
:104E1000B448844207D10121C013FFF7F2FD0021FD
:104E2000E013FFF7EEFD10BD10B50022028802F47A
:104E300041520B884C8823438C882343CC882343DE
:104E40000C8923434C8923438C892343CC892343F6
:104E50001A430280838B4FF2FF74234083830B8AB3
:104E6000038210BD2DE9F04F85B005460C464FF08A
:104E7000000902274FF000084FF0010B0026B24650
:104E8000A88B4FF240010840A88302202884B5F87F
:104E90001C90A068022801D100BF38E0A08810B99A
:104EA0004FF0010B01E04FF0020B8D48854200D11D
:104EB00000E000BF6846FFF710FDDDF800A0E088C5
:104EC000B0F5007F0AD14FEA1A2000EB80004000C5
:104ED000A168B0FBF1F0401D86B20BE04FEA4B1029
:104EE000BAFBF0F000EB80004000A168B0FBF1F0ED
:104EF000401D86B20A20B6FBF0F606F00108A6EBCC
:104F00000800C0F34F074FF6FF7000EA0828022F91
:104F100001DBFF2F02DD02274FF00008E08840EAA6
:104F2000080038432884A088A18908436188084381
:104F30002188084340F4006040EA0909A5F81C9064
:104F400005B0BDE8F08F0021018041808180C180E3
:104F5000018141818181C181072101827047002146
:104F6000018041808180C180022181600021818196
:104F7000704721B1028842F04002028004E00288BA
:104F80004FF6BF731A400280704721B1828B42F402
:104F90008062828304E0828B4FF6FF331A40828363
:104FA000704730B5002400230C110125A540ABB299
:104FB0001AB185881D43858002E085889D438580E0
:104FC00030BD1AB183880B43838002E083888B4312
:104FD0008380704781817047014688897047A1F5B9
:104FE0007E42FF3A04D0028842F48072028004E0DC
:104FF00002884FF6FF631A400280704721B1828811
:1050000042F00402828004E082884FF6FB731A406B
:105010008280704702884FF2FF731A400280028834
:105020000A4302807047018841F480510180704733
:1050300021B1028842F40052028004E002884DF659
:10504000FF731A400280704702460020012901D0F8
:10505000108B00E0908A70470146088A7047B1F5CE
:10506000804F04D1028842F48042028004E002882A
:105070004BF6FF731A4002807047024600201389E6
:105080000B4201D0012000E000207047CA4302819A
:105090007047F0B50246002000240023002501F0EF
:1050A0000F070126BE40B4B20B1101269E40B3B2D9
:1050B000968806EA03051689264202D00DB1012022
:1050C00000E00020F0BD10B5002201F00F04012324
:1050D000A3409AB2D343038110BD000000300140C9
:1050E00000380040003C004010B50446FE488442B1
:1050F00008D10121C014FFF777FC0021E014FFF76D
:1051000073FCC4E0B4F1804F08D101210846FFF7D9
:1051100078FC00210120FFF774FCB8E0F3488442DA
:1051200008D101210220FFF76CFC00210220FFF7CB
:1051300068FCACE0EE48844208D101210420FFF76E
:1051400060FC00210420FFF75CFCA0E0E9488442F9
:1051500008D101210820FFF754FC00210820FFF7A7
:1051600050FC94E0E448844208D101211020FFF76C
:1051700048FC00211020FFF744FC88E0DF4884420F
:1051800008D101212020FFF73CFC00212020FFF75F
:1051900038FC7CE0DA48844208D101214014FFF752
:1051A00023FC00216014FFF71FFC70E0D548844207
:1051B00009D10121C804FFF717FC00214FF400209A
:1051C000FFF712FC63E0D048844209D101210805B1
:1051D000FFF70AFC00214FF48010FFF705FC56E0B2
:1051E000CA48844209D101214805FFF7FDFB00218F
:1051F0004FF40010FFF7F8FB49E0C548844208D19E
:1052000001214020FFF7FDFB00214020FFF7F9FBC3
:105210003DE0C048844208D101218020FFF7F1FB26
:1052200000218020FFF7EDFB31E0BB48844208D12C
:1052300001218015FFF7E5FB0021A015FFF7E1FB39
:1052400025E0B648844209D101210804FFF7CCFBD0
:1052500000214FF48030FFF7C7FB18E0B0488442CC
:1052600009D101214804FFF7BFFB00214FF40030B2
:10527000FFF7BAFB0BE0AB48844208D10121880458
:10528000FFF7B2FB00214FF48020FFF7ADFB10BD0C
:1052900000220288944B98420ED0994B98420BD032
:1052A000B0F1804F08D0914B984205D0904B984276
:1052B00002D0904B984204D14FF68F731A404B881E
:1052C0001A438D4B984207D08C4B984204D04FF62E
:1052D000FF431A40CB881A4302808B8883850B8852
:1052E0000385814B98420BD0854B984208D08B4B5D
:1052F000984205D08A4B984202D08A4B984201D1FD
:105300000B7A038601238382704770B50024002244
:105310000023058C4FF6FE7635400584028C838889
:10532000048B4FF68F752C40B51E2C400D882C43F6
:10533000751E2A400D892A434D882A436A4DA8428A
:105340000BD06F4DA84208D0744DA84205D0744DC3
:10535000A84202D0734DA84213D14FF6F7752A40E8
:105360004D892A434FF6FB752A408D882A434FF614
:10537000FF652B404FF6FF552B408D892B43CD8980
:105380002B4383800483CD888586028470BD70B5ED
:10539000002400220023058C4FF6EF76354005846B
:1053A000028C8388048B48F6FF752C404FF6FF452E
:1053B0002C400D884FF6FF7606EA05252C434FF664
:1053C000DF752A400D8906EA05152A434D8806EA4D
:1053D00005152A43444DA84202D0494DA8421DD18B
:1053E0004FF67F752A404D894FF6FF7606EA051580
:1053F0002A434FF6BF752A408D8806EA05152A43D1
:105400004FF6FF352B404FF2FF752B408D8906EA92
:1054100085052B43CD8906EA85052B4383800483CC
:10542000CD880587028470BD70B50024002200235A
:10543000058C4FF6FF6635400584028C8388848B8B
:105440004FF68F752C404FF6FC752C400D882C4381
:105450004FF6FF552A400D894FF6FF7606EA0525DF
:105460002A434D8806EA05252A431F4DA84202D04B
:10547000234DA8421DD14FF2FF752A404D894FF6AA
:10548000FF7606EA05252A434FF6FF352A408D8828
:1054900006EA05252A434EF6FF752B404DF6FF75AB
:1054A0002B408D8906EA05152B43CD8906EA0515A3
:1054B0002B4383808483CD888587028470BD70B53B
:1054C000002200230024058C4EF6FF76354005842B
:1054D000038C8488828B48F6FF752A404FF6FF457F
:1054E0002A400D8820E00000002C0140000400400C
:1054F00000080040000C0040001000400014004074
:1055000000340140004C0140005001400054014073
:1055100000180040001C00400020004000400140F6
:1055200000440140004801404FF6FF7606EA052599
:105530002A434DF6FF752B400D8906EA05352B43AE
:105540004D8806EA05352B43FA4DA84202D0FA4DA4
:10555000A84208D14BF6FF752C408D894FF6FF7697
:1055600006EA85152C4384808283CD88A0F84050BC
:10557000038470BD828B4FF2FF331A408283828B8B
:105580004FF6FF7303EA01231A4382837047F0B595
:105590000C461546002200210026078C4EF6FF7CA3
:1055A00007EA0C070784828B018C4FF6FF7707EA26
:1055B000043640F6FF473A404FF6FF7707EA0527E3
:1055C0003A434FF6FF7707EA03373A43D94FB842D9
:1055D0000ED0D94FB8420BD0B0F1804F08D0D74F82
:1055E000B84205D0D64FB84202D0D64FB84206D105
:1055F0004DF6FF77394046F48057394305E047F6CA
:10560000FF57394044F48057394382830184F0BD09
:10561000828B4FF6F3731A408283828B0A43828314
:105620007047F0B50C461546002200210026078C75
:105630004FF6FF6C07EA0C070784828B018C4FF64C
:10564000FF7707EA04264FF60C773A404FF6FF77CC
:1056500007EA03172F433A43B64FB8420ED0B64F6E
:10566000B8420BD0B0F1804F08D0B44FB84205D04B
:10567000B34FB84202D0B34FB84206D14FF6FF57EE
:10568000394046F48077394305E04FF2FF573940FF
:1056900044F48077394382830184F0BD028B4FF25A
:1056A000FF331A400283028B4FF6FF7303EA012394
:1056B0001A4302837047F0B50C46154600220021BC
:1056C0000026078C4FF6EF7C07EA0C070784028B55
:1056D000018C4FF6FF7707EA041640F6FF473A4081
:1056E0004FF6FF7707EA03373A434FF6FF7707EAAB
:1056F00005273A438F4FB8420ED08F4FB8420BD098
:10570000B0F1804F08D08D4FB84205D08C4FB842D1
:1057100002D08C4FB84206D14FF6DF77394046F0C1
:105720001007394305E04FF65F77394044F0100722
:10573000394302830184F0BD028B4FF6F3731A40A4
:105740000283028B0A4302837047F0B50C4615466C
:1057500000220021068C4FF6FE773E400684028B25
:10576000018C4FF60C7632407E1C06EA03162E435F
:105770003243704EB0420ED06F4EB0420BD0B0F1FB
:10578000804F08D06D4EB04205D06D4EB04202D071
:105790006C4EB04206D14FF6FD76314044F0010622
:1057A000314305E04FF6F576314044F001063143D0
:1057B00002830184F0BD70B505460C465D48854204
:1057C0000ED05D4885420BD0B5F1804F08D05B48C4
:1057D000854205D05A48854202D05A48854200D1B8
:1057E00000E000BF208850B92389A288618828463C
:1057F000FFF7ABFFE1882846FFF79EFF25E02088F2
:1058000004280AD12389A28861882846FFF753FF1C
:10581000E1882846FFF742FF17E0208808280AD1D0
:105820002389A28861882846FFF7FBFEE188284685
:10583000FFF7EEFE09E02389A28861882846FFF77A
:10584000A6FEE1882846FFF795FE70BD2DE9F041E0
:1058500005460C4600260127608808B9022600E0AC
:105860000026A088012801D1022700E00127208816
:10587000A0B92389A28861882846FFF766FFE188DE
:105880002846FFF759FF23893A4631462846FFF755
:1058900012FFE1882846FFF701FF13E02389A28861
:1058A00061882846FFF707FFE1882846FFF7F6FEE4
:1058B00023893A4631462846FFF747FFE1882846C4
:1058C000FFF73AFFBDE8F0810A884B881A438B88BE
:1058D0001A43CB881A430B891A434B891A438B8985
:1058E0001A43A0F8442070474FF6FF7181800021D1
:1058F0000180C18041800172704700210180418098
:105900008180C180018141818181C18170470021F5
:1059100001804180012181800021C1800181704787
:105920000021018041808180C1800181418181818C
:1059300070470000002C014000340140000400408A
:1059400000080040000C004021B1028842F0010232
:10595000028004E002884FF6FE731A40028070470E
:1059600031B1B0F8442042F40042A0F8442005E0F0
:10597000B0F84420C2F30E02A0F8442070471AB1D8
:1059800083890B43838102E083898B438381704742
:105990008182704741EA0203A0F8483070471AB18B
:1059A00083890B43838102E083898B438381704722
:1059B00001894FF6F8721140018170470A460021B3
:1059C00001894FF68F73194011430181704730B53B
:1059D00004460D4629462046FFF7F0FF208940F097
:1059E0000700208130BD2DE9F04104460D461646E2
:1059F0001F46602D06D13B46012231462046FFF767
:105A00005AFE05E03B46012231462046FFF79DFE47
:105A100029462046FFF7D2FF208940F00700208169
:105A2000BDE8F08130B50C4600210189C9B24FF6BE
:105A3000FF7505EA0325154325432943018130BD40
:105A40002DE9F04105460E46174698460024434688
:105A50003A4631462846FFF7E5FF2C894FF6F870A5
:105A6000044044F007044FF68F70044044F0700483
:105A70002C81BDE8F081F0B504460D4616461F4660
:105A80003B46324629462046FFF7CCFF208940F4AA
:105A900080402081F0BD0185828270470A46002146
:105AA00001884FF68F731940114301807047F0B59C
:105AB0000C4615461E460021002200230189028B58
:105AC000038C4FF6F877394021434FF6FC473A40B4
:105AD00040F201173A434FF6DD773B404FF6FF7730
:105AE00007EA06172F433B43018102830384F0BD7D
:105AF0000A460021018B4FF68F7319401143018331
:105B000070470A460021018B48F6FF7319404FF693
:105B1000FF7303EA02231943018370470A460021F9
:105B2000818B4FF68F7319401143818370470A466A
:105B30000021818B48F6FF7319404FF6FF7303EA8B
:105B4000022319438183704721B1028842F0800209
:105B5000028004E002884FF67F731A40028070478B
:105B600021B1828842F00402828004E082884FF6EC
:105B7000FB731A408280704721B1828842F008028C
:105B8000828004E082884FF6F7731A408280704763
:105B900021B1828842F00102828004E082884FF6BF
:105BA000FE731A40828070470A460021018B4FF62F
:105BB000F77319401143018370470A460021018B96
:105BC0004FF2FF7319404FF6FF7303EA02231943A4
:105BD000018370470A460021818B4FF6F773194005
:105BE0001143818370470A460021818B4FF2FF7376
:105BF00019404FF6FF7303EA02231943818370476C
:105C00000A460021018B4FF6FB73194011430183B3
:105C100070470A460021018B4FF6FF3319404FF6BB
:105C2000FF7303EA02231943018370470A460021E8
:105C3000818B4FF6FB7319401143818370470A46ED
:105C40000021818B4FF6FF3319404FF6FF7303EAB3
:105C500002231943818370470A460021018B4FF6C6
:105C60007F7319401143018370470A460021018B5D
:105C7000C1F30E014FF6FF7303EA022319430183B8
:105C800070470A460021818B4FF67F7319401143FC
:105C9000818370470A460021818BC1F30E014FF6C4
:105CA000FF7303EA02231943818370470A460021E8
:105CB000018C4FF6FD7319401143018470470A4669
:105CC0000021018C4FF6F77319401143018470478E
:105CD0000A460021018C4FF6DF7319404FF6FF731F
:105CE00003EA02131943018470470A460021018C1C
:105CF0004FF67F7319404FF6FF7303EA02131943FF
:105D0000018470470A460021018C4FF6FF53194069
:105D10004FF6FF7303EA02231943018470470A46D2
:105D20000021018C4FF2FF7319404FF6FF7303EA15
:105D300002231943018470470A460021018C4DF665
:105D4000FF7319404FF6FF7303EA023319430184CE
:105D5000704730B5002301248C40A3B2048C9C43CF
:105D60000484048C02FA01F5ADB22C43048430BDE6
:105D700030B5002304248C40A3B2048C9C430484DB
:105D8000048C02FA01F5ADB22C43048430BD70B529
:105D90000346002000241846183001258D40ACB27F
:105DA0001D8CA5431D8409B1082909D100EB6100B0
:105DB000056825F0700505600568154305600EE06F
:105DC0000D1FC5F34E052844056825F4E045056020
:105DD00005684FF6FF7606EA02263543056070BD7A
:105DE00021B1028842F00202028004E002884FF6EC
:105DF000FD731A400280704721B1028842F004020C
:105E0000028004E002884FF6FB731A40028070475C
:105E100021B1828842F08002828004E082884FF6BD
:105E20007F731A408280704702884FF6F7731A40DA
:105E3000028002880A430280704782884FF68F737F
:105E40001A40828082880A438280704702894FF616
:105E5000F8731A40028102890A430281704702895D
:105E60004FF67F731A40028102890A43028170470C
:105E700081847047818570478186704701877047AC
:105E800081877047A0F84010704702884FF6FF43A3
:105E90001A40028002880A43028070470146888EB9
:105EA00070470146088F70470146888F704701464A
:105EB000B1F8400070470146888C70470146088D54
:105EC000704702460020138A0B4201D0012000E0F7
:105ED00000207047CA430282704730B50246002056
:105EE00000230024158A05EA0103958905EA0104C7
:105EF00013B10CB1012000E0002030BDCA43028282
:105F000070470000064C074D06E0E06840F00103D2
:105F100094E8070098471034AC42F6D3FCF7EAF84F
:105F2000505F0008705F000802E008C8121F08C137
:105F3000002AFAD170477047002001E001C1121F0A
:105F4000002AFBD17047819FE0FC407E80FC00006E
:105F5000705F00080000002030000000285F00088B
:105F6000A05F00083000002058060000385F0008DD
:105F700000A24A0400000000000000000102030427
:105F800006070809000000000000010000000000F2
:105F900001020304010203040607080902040608BB
:04000005080020EDE2
:00000001FF
